{
  "_format": "hh-sol-artifact-1",
  "contractName": "NFT",
  "sourceName": "contracts/NFT.sol",
  "abi": [
    {
      "inputs": [],
      "stateMutability": "nonpayable",
      "type": "constructor"
    },
    {
      "anonymous": false,
      "inputs": [
        {
          "indexed": false,
          "internalType": "address",
          "name": "previousAdmin",
          "type": "address"
        },
        {
          "indexed": false,
          "internalType": "address",
          "name": "newAdmin",
          "type": "address"
        }
      ],
      "name": "AdminChanged",
      "type": "event"
    },
    {
      "anonymous": false,
      "inputs": [
        {
          "indexed": true,
          "internalType": "address",
          "name": "owner",
          "type": "address"
        },
        {
          "indexed": true,
          "internalType": "address",
          "name": "approved",
          "type": "address"
        },
        {
          "indexed": true,
          "internalType": "uint256",
          "name": "tokenId",
          "type": "uint256"
        }
      ],
      "name": "Approval",
      "type": "event"
    },
    {
      "anonymous": false,
      "inputs": [
        {
          "indexed": true,
          "internalType": "address",
          "name": "owner",
          "type": "address"
        },
        {
          "indexed": true,
          "internalType": "address",
          "name": "operator",
          "type": "address"
        },
        {
          "indexed": false,
          "internalType": "bool",
          "name": "approved",
          "type": "bool"
        }
      ],
      "name": "ApprovalForAll",
      "type": "event"
    },
    {
      "anonymous": false,
      "inputs": [
        {
          "indexed": true,
          "internalType": "address",
          "name": "beacon",
          "type": "address"
        }
      ],
      "name": "BeaconUpgraded",
      "type": "event"
    },
    {
      "anonymous": false,
      "inputs": [
        {
          "indexed": true,
          "internalType": "address",
          "name": "previousOwner",
          "type": "address"
        },
        {
          "indexed": true,
          "internalType": "address",
          "name": "newOwner",
          "type": "address"
        }
      ],
      "name": "OwnershipTransferred",
      "type": "event"
    },
    {
      "anonymous": false,
      "inputs": [
        {
          "indexed": true,
          "internalType": "bytes32",
          "name": "role",
          "type": "bytes32"
        },
        {
          "indexed": true,
          "internalType": "bytes32",
          "name": "previousAdminRole",
          "type": "bytes32"
        },
        {
          "indexed": true,
          "internalType": "bytes32",
          "name": "newAdminRole",
          "type": "bytes32"
        }
      ],
      "name": "RoleAdminChanged",
      "type": "event"
    },
    {
      "anonymous": false,
      "inputs": [
        {
          "indexed": true,
          "internalType": "bytes32",
          "name": "role",
          "type": "bytes32"
        },
        {
          "indexed": true,
          "internalType": "address",
          "name": "account",
          "type": "address"
        },
        {
          "indexed": true,
          "internalType": "address",
          "name": "sender",
          "type": "address"
        }
      ],
      "name": "RoleGranted",
      "type": "event"
    },
    {
      "anonymous": false,
      "inputs": [
        {
          "indexed": true,
          "internalType": "bytes32",
          "name": "role",
          "type": "bytes32"
        },
        {
          "indexed": true,
          "internalType": "address",
          "name": "account",
          "type": "address"
        },
        {
          "indexed": true,
          "internalType": "address",
          "name": "sender",
          "type": "address"
        }
      ],
      "name": "RoleRevoked",
      "type": "event"
    },
    {
      "anonymous": false,
      "inputs": [
        {
          "indexed": true,
          "internalType": "address",
          "name": "from",
          "type": "address"
        },
        {
          "indexed": true,
          "internalType": "address",
          "name": "to",
          "type": "address"
        },
        {
          "indexed": true,
          "internalType": "uint256",
          "name": "tokenId",
          "type": "uint256"
        }
      ],
      "name": "Transfer",
      "type": "event"
    },
    {
      "anonymous": false,
      "inputs": [
        {
          "indexed": true,
          "internalType": "address",
          "name": "implementation",
          "type": "address"
        }
      ],
      "name": "Upgraded",
      "type": "event"
    },
    {
      "inputs": [],
      "name": "DEFAULT_ADMIN_ROLE",
      "outputs": [
        {
          "internalType": "bytes32",
          "name": "",
          "type": "bytes32"
        }
      ],
      "stateMutability": "view",
      "type": "function"
    },
    {
      "inputs": [],
      "name": "MAX_SUPPLY",
      "outputs": [
        {
          "internalType": "uint256",
          "name": "",
          "type": "uint256"
        }
      ],
      "stateMutability": "view",
      "type": "function"
    },
    {
      "inputs": [],
      "name": "MINTER_ROLE",
      "outputs": [
        {
          "internalType": "bytes32",
          "name": "",
          "type": "bytes32"
        }
      ],
      "stateMutability": "view",
      "type": "function"
    },
    {
      "inputs": [
        {
          "internalType": "address",
          "name": "account",
          "type": "address"
        }
      ],
      "name": "addMinter",
      "outputs": [],
      "stateMutability": "nonpayable",
      "type": "function"
    },
    {
      "inputs": [
        {
          "internalType": "address",
          "name": "to",
          "type": "address"
        },
        {
          "internalType": "uint256",
          "name": "tokenId",
          "type": "uint256"
        }
      ],
      "name": "approve",
      "outputs": [],
      "stateMutability": "nonpayable",
      "type": "function"
    },
    {
      "inputs": [
        {
          "internalType": "address",
          "name": "owner",
          "type": "address"
        }
      ],
      "name": "balanceOf",
      "outputs": [
        {
          "internalType": "uint256",
          "name": "",
          "type": "uint256"
        }
      ],
      "stateMutability": "view",
      "type": "function"
    },
    {
      "inputs": [
        {
          "internalType": "uint256",
          "name": "tokenId",
          "type": "uint256"
        }
      ],
      "name": "burn",
      "outputs": [],
      "stateMutability": "nonpayable",
      "type": "function"
    },
    {
      "inputs": [],
      "name": "contractURI",
      "outputs": [
        {
          "internalType": "string",
          "name": "",
          "type": "string"
        }
      ],
      "stateMutability": "view",
      "type": "function"
    },
    {
      "inputs": [
        {
          "internalType": "string",
          "name": "tokenURIHash",
          "type": "string"
        },
        {
          "internalType": "string",
          "name": "content",
          "type": "string"
        },
        {
          "internalType": "uint256",
          "name": "date",
          "type": "uint256"
        }
      ],
      "name": "createToken",
      "outputs": [
        {
          "internalType": "uint256",
          "name": "",
          "type": "uint256"
        }
      ],
      "stateMutability": "nonpayable",
      "type": "function"
    },
    {
      "inputs": [
        {
          "internalType": "uint256",
          "name": "tokenId",
          "type": "uint256"
        }
      ],
      "name": "getApproved",
      "outputs": [
        {
          "internalType": "address",
          "name": "",
          "type": "address"
        }
      ],
      "stateMutability": "view",
      "type": "function"
    },
    {
      "inputs": [
        {
          "internalType": "uint256",
          "name": "tokenId",
          "type": "uint256"
        }
      ],
      "name": "getEntitlement",
      "outputs": [
        {
          "internalType": "uint256",
          "name": "amount",
          "type": "uint256"
        },
        {
          "internalType": "address",
          "name": "purchaser",
          "type": "address"
        },
        {
          "internalType": "address",
          "name": "beneficiary",
          "type": "address"
        },
        {
          "internalType": "string",
          "name": "content",
          "type": "string"
        },
        {
          "internalType": "uint256",
          "name": "date",
          "type": "uint256"
        }
      ],
      "stateMutability": "view",
      "type": "function"
    },
    {
      "inputs": [
        {
          "internalType": "bytes32",
          "name": "role",
          "type": "bytes32"
        }
      ],
      "name": "getRoleAdmin",
      "outputs": [
        {
          "internalType": "bytes32",
          "name": "",
          "type": "bytes32"
        }
      ],
      "stateMutability": "view",
      "type": "function"
    },
    {
      "inputs": [
        {
          "internalType": "bytes32",
          "name": "role",
          "type": "bytes32"
        },
        {
          "internalType": "address",
          "name": "account",
          "type": "address"
        }
      ],
      "name": "grantRole",
      "outputs": [],
      "stateMutability": "nonpayable",
      "type": "function"
    },
    {
      "inputs": [
        {
          "internalType": "bytes32",
          "name": "role",
          "type": "bytes32"
        },
        {
          "internalType": "address",
          "name": "account",
          "type": "address"
        }
      ],
      "name": "hasRole",
      "outputs": [
        {
          "internalType": "bool",
          "name": "",
          "type": "bool"
        }
      ],
      "stateMutability": "view",
      "type": "function"
    },
    {
      "inputs": [
        {
          "internalType": "address",
          "name": "marketplaceAddress",
          "type": "address"
        },
        {
          "internalType": "string",
          "name": "name",
          "type": "string"
        },
        {
          "internalType": "string",
          "name": "symbol",
          "type": "string"
        }
      ],
      "name": "initialize",
      "outputs": [],
      "stateMutability": "nonpayable",
      "type": "function"
    },
    {
      "inputs": [
        {
          "internalType": "address",
          "name": "owner",
          "type": "address"
        },
        {
          "internalType": "address",
          "name": "operator",
          "type": "address"
        }
      ],
      "name": "isApprovedForAll",
      "outputs": [
        {
          "internalType": "bool",
          "name": "",
          "type": "bool"
        }
      ],
      "stateMutability": "view",
      "type": "function"
    },
    {
      "inputs": [
        {
          "internalType": "uint256",
          "name": "tokenId",
          "type": "uint256"
        }
      ],
      "name": "isEntitlementAvailable",
      "outputs": [
        {
          "internalType": "bool",
          "name": "available",
          "type": "bool"
        },
        {
          "internalType": "uint256",
          "name": "date",
          "type": "uint256"
        }
      ],
      "stateMutability": "view",
      "type": "function"
    },
    {
      "inputs": [],
      "name": "name",
      "outputs": [
        {
          "internalType": "string",
          "name": "",
          "type": "string"
        }
      ],
      "stateMutability": "view",
      "type": "function"
    },
    {
      "inputs": [],
      "name": "owner",
      "outputs": [
        {
          "internalType": "address",
          "name": "",
          "type": "address"
        }
      ],
      "stateMutability": "view",
      "type": "function"
    },
    {
      "inputs": [
        {
          "internalType": "uint256",
          "name": "tokenId",
          "type": "uint256"
        }
      ],
      "name": "ownerOf",
      "outputs": [
        {
          "internalType": "address",
          "name": "",
          "type": "address"
        }
      ],
      "stateMutability": "view",
      "type": "function"
    },
    {
      "inputs": [],
      "name": "renounceOwnership",
      "outputs": [],
      "stateMutability": "nonpayable",
      "type": "function"
    },
    {
      "inputs": [
        {
          "internalType": "bytes32",
          "name": "role",
          "type": "bytes32"
        },
        {
          "internalType": "address",
          "name": "account",
          "type": "address"
        }
      ],
      "name": "renounceRole",
      "outputs": [],
      "stateMutability": "nonpayable",
      "type": "function"
    },
    {
      "inputs": [
        {
          "internalType": "bytes32",
          "name": "role",
          "type": "bytes32"
        },
        {
          "internalType": "address",
          "name": "account",
          "type": "address"
        }
      ],
      "name": "revokeRole",
      "outputs": [],
      "stateMutability": "nonpayable",
      "type": "function"
    },
    {
      "inputs": [],
      "name": "royaltiesPercentage",
      "outputs": [
        {
          "internalType": "uint256",
          "name": "",
          "type": "uint256"
        }
      ],
      "stateMutability": "view",
      "type": "function"
    },
    {
      "inputs": [],
      "name": "royaltiesReceiver",
      "outputs": [
        {
          "internalType": "address",
          "name": "",
          "type": "address"
        }
      ],
      "stateMutability": "nonpayable",
      "type": "function"
    },
    {
      "inputs": [
        {
          "internalType": "uint256",
          "name": "_tokenId",
          "type": "uint256"
        },
        {
          "internalType": "uint256",
          "name": "_salePrice",
          "type": "uint256"
        }
      ],
      "name": "royaltyInfo",
      "outputs": [
        {
          "internalType": "address",
          "name": "receiver",
          "type": "address"
        },
        {
          "internalType": "uint256",
          "name": "royaltyAmount",
          "type": "uint256"
        }
      ],
      "stateMutability": "view",
      "type": "function"
    },
    {
      "inputs": [
        {
          "internalType": "address",
          "name": "from",
          "type": "address"
        },
        {
          "internalType": "address",
          "name": "to",
          "type": "address"
        },
        {
          "internalType": "uint256",
          "name": "tokenId",
          "type": "uint256"
        }
      ],
      "name": "safeTransferFrom",
      "outputs": [],
      "stateMutability": "nonpayable",
      "type": "function"
    },
    {
      "inputs": [
        {
          "internalType": "address",
          "name": "from",
          "type": "address"
        },
        {
          "internalType": "address",
          "name": "to",
          "type": "address"
        },
        {
          "internalType": "uint256",
          "name": "tokenId",
          "type": "uint256"
        },
        {
          "internalType": "bytes",
          "name": "_data",
          "type": "bytes"
        }
      ],
      "name": "safeTransferFrom",
      "outputs": [],
      "stateMutability": "nonpayable",
      "type": "function"
    },
    {
      "inputs": [
        {
          "internalType": "address",
          "name": "operator",
          "type": "address"
        },
        {
          "internalType": "bool",
          "name": "approved",
          "type": "bool"
        }
      ],
      "name": "setApprovalForAll",
      "outputs": [],
      "stateMutability": "nonpayable",
      "type": "function"
    },
    {
      "inputs": [
        {
          "internalType": "string",
          "name": "newContractURIHash",
          "type": "string"
        }
      ],
      "name": "setContractURIHash",
      "outputs": [],
      "stateMutability": "nonpayable",
      "type": "function"
    },
    {
      "inputs": [
        {
          "internalType": "address",
          "name": "newRoyaltiesReceiver",
          "type": "address"
        }
      ],
      "name": "setRoyaltiesReceiver",
      "outputs": [],
      "stateMutability": "nonpayable",
      "type": "function"
    },
    {
      "inputs": [
        {
          "internalType": "bytes4",
          "name": "interfaceId",
          "type": "bytes4"
        }
      ],
      "name": "supportsInterface",
      "outputs": [
        {
          "internalType": "bool",
          "name": "",
          "type": "bool"
        }
      ],
      "stateMutability": "view",
      "type": "function"
    },
    {
      "inputs": [],
      "name": "symbol",
      "outputs": [
        {
          "internalType": "string",
          "name": "",
          "type": "string"
        }
      ],
      "stateMutability": "view",
      "type": "function"
    },
    {
      "inputs": [
        {
          "internalType": "uint256",
          "name": "index",
          "type": "uint256"
        }
      ],
      "name": "tokenByIndex",
      "outputs": [
        {
          "internalType": "uint256",
          "name": "",
          "type": "uint256"
        }
      ],
      "stateMutability": "view",
      "type": "function"
    },
    {
      "inputs": [
        {
          "internalType": "address",
          "name": "owner",
          "type": "address"
        },
        {
          "internalType": "uint256",
          "name": "index",
          "type": "uint256"
        }
      ],
      "name": "tokenOfOwnerByIndex",
      "outputs": [
        {
          "internalType": "uint256",
          "name": "",
          "type": "uint256"
        }
      ],
      "stateMutability": "view",
      "type": "function"
    },
    {
      "inputs": [
        {
          "internalType": "uint256",
          "name": "tokenId",
          "type": "uint256"
        }
      ],
      "name": "tokenURI",
      "outputs": [
        {
          "internalType": "string",
          "name": "",
          "type": "string"
        }
      ],
      "stateMutability": "view",
      "type": "function"
    },
    {
      "inputs": [
        {
          "internalType": "address",
          "name": "_owner",
          "type": "address"
        }
      ],
      "name": "tokensOfOwner",
      "outputs": [
        {
          "internalType": "uint256[]",
          "name": "ownerTokens",
          "type": "uint256[]"
        }
      ],
      "stateMutability": "view",
      "type": "function"
    },
    {
      "inputs": [],
      "name": "totalSupply",
      "outputs": [
        {
          "internalType": "uint256",
          "name": "",
          "type": "uint256"
        }
      ],
      "stateMutability": "view",
      "type": "function"
    },
    {
      "inputs": [
        {
          "internalType": "address",
          "name": "from",
          "type": "address"
        },
        {
          "internalType": "address",
          "name": "to",
          "type": "address"
        },
        {
          "internalType": "uint256",
          "name": "tokenId",
          "type": "uint256"
        }
      ],
      "name": "transferFrom",
      "outputs": [],
      "stateMutability": "nonpayable",
      "type": "function"
    },
    {
      "inputs": [
        {
          "internalType": "address",
          "name": "newOwner",
          "type": "address"
        }
      ],
      "name": "transferOwnership",
      "outputs": [],
      "stateMutability": "nonpayable",
      "type": "function"
    },
    {
      "inputs": [
        {
          "internalType": "address",
          "name": "newImplementation",
          "type": "address"
        }
      ],
      "name": "upgradeTo",
      "outputs": [],
      "stateMutability": "nonpayable",
      "type": "function"
    },
    {
      "inputs": [
        {
          "internalType": "address",
          "name": "newImplementation",
          "type": "address"
        },
        {
          "internalType": "bytes",
          "name": "data",
          "type": "bytes"
        }
      ],
      "name": "upgradeToAndCall",
      "outputs": [],
      "stateMutability": "payable",
      "type": "function"
    },
    {
      "inputs": [],
      "name": "version",
      "outputs": [
        {
          "internalType": "string",
          "name": "",
          "type": "string"
        }
      ],
      "stateMutability": "view",
      "type": "function"
    }
  ],
  "bytecode": "0x60a06040523060601b6080523480156200001857600080fd5b50600054610100900460ff16620000365760005460ff161562000040565b62000040620000e5565b620000a85760405162461bcd60e51b815260206004820152602e60248201527f496e697469616c697a61626c653a20636f6e747261637420697320616c72656160448201526d191e481a5b9a5d1a585b1a5e995960921b606482015260840160405180910390fd5b600054610100900460ff16158015620000cb576000805461ffff19166101011790555b8015620000de576000805461ff00191690555b5062000109565b6000620000fd306200010360201b620019261760201c565b15905090565b3b151590565b60805160601c613bad6200013d60003960008181610c4401528181610c8401528181610dc60152610e060152613bad6000f3fe60806040526004361061025c5760003560e01c806370a0823111610144578063a77bec82116100b6578063cafa8dfe1161007a578063cafa8dfe14610752578063d539139314610767578063d547741f1461079b578063e8a3d485146107bb578063e985e9c5146107d0578063f2fde38b1461081957600080fd5b8063a77bec82146106a1578063b5143715146106d2578063b88d4fde146106f2578063baedc1c414610712578063c87b56dd1461073257600080fd5b806391d148541161010857806391d14854146105f857806395d89b4114610618578063983b2d561461062d578063a217fddf1461064d578063a22cb46514610662578063a3a51bd51461068257600080fd5b806370a0823114610557578063715018a6146105775780638462151c1461058c5780638da5cb5b146105b957806390657147146105d857600080fd5b806332cb6b0c116101dd5780634f1ef286116101a15780634f1ef286146104985780634f6ccce7146104ab57806354fd4d50146104cb578063591d2838146104e05780635b060530146105175780636352211e1461053757600080fd5b806332cb6b0c1461040257806336568abe146104185780633659cfe61461043857806342842e0e1461045857806342966c681461047857600080fd5b806323b872dd1161022457806323b872dd14610332578063248a9ca3146103525780632a55205a146103835780632f2ff15d146103c25780632f745c59146103e257600080fd5b806301ffc9a71461026157806306fdde0314610296578063081812fc146102b8578063095ea7b3146102f057806318160ddd14610312575b600080fd5b34801561026d57600080fd5b5061028161027c366004613492565b610839565b60405190151581526020015b60405180910390f35b3480156102a257600080fd5b506102ab610864565b60405161028d91906137d7565b3480156102c457600080fd5b506102d86102d3366004613458565b6108f6565b6040516001600160a01b03909116815260200161028d565b3480156102fc57600080fd5b5061031061030b36600461342f565b610983565b005b34801561031e57600080fd5b50610161545b60405190815260200161028d565b34801561033e57600080fd5b5061031061034d366004613297565b610a99565b34801561035e57600080fd5b5061032461036d366004613458565b6000908152610191602052604090206001015490565b34801561038f57600080fd5b506103a361039e366004613567565b610aca565b604080516001600160a01b03909316835260208301919091520161028d565b3480156103ce57600080fd5b506103106103dd366004613470565b610afd565b3480156103ee57600080fd5b506103246103fd36600461342f565b610b24565b34801561040e57600080fd5b50610324611e6181565b34801561042457600080fd5b50610310610433366004613470565b610bbb565b34801561044457600080fd5b5061031061045336600461324b565b610c39565b34801561046457600080fd5b50610310610473366004613297565b610d02565b34801561048457600080fd5b50610310610493366004613458565b610d1d565b6103106104a6366004613372565b610dbb565b3480156104b757600080fd5b506103246104c6366004613458565b610e71565b3480156104d757600080fd5b506102ab610f14565b3480156104ec57600080fd5b506105006104fb366004613458565b610fa3565b60408051921515835260208301919091520161028d565b34801561052357600080fd5b506103246105323660046134fd565b610fdb565b34801561054357600080fd5b506102d8610552366004613458565b6111e0565b34801561056357600080fd5b5061032461057236600461324b565b611257565b34801561058357600080fd5b506103106112de565b34801561059857600080fd5b506105ac6105a736600461324b565b611315565b60405161028d9190613793565b3480156105c557600080fd5b5061012d546001600160a01b03166102d8565b3480156105e457600080fd5b506103106105f33660046133be565b6113ef565b34801561060457600080fd5b50610281610613366004613470565b611533565b34801561062457600080fd5b506102ab61155f565b34801561063957600080fd5b5061031061064836600461324b565b61156e565b34801561065957600080fd5b50610324600081565b34801561066e57600080fd5b5061031061067d366004613338565b6115c3565b34801561068e57600080fd5b506101c8546001600160a01b03166102d8565b3480156106ad57600080fd5b506106c16106bc366004613458565b6115ce565b60405161028d9594939291906139a5565b3480156106de57600080fd5b506103106106ed36600461324b565b611757565b3480156106fe57600080fd5b5061031061070d3660046132d2565b6117c1565b34801561071e57600080fd5b5061031061072d3660046134ca565b6117f3565b34801561073e57600080fd5b506102ab61074d366004613458565b611832565b34801561075e57600080fd5b50610324600581565b34801561077357600080fd5b506103247f9f2df0fed2c77648de5860a4cc508cd0818c85b8b8a1ab4ceeef8d981c8956a681565b3480156107a757600080fd5b506103106107b6366004613470565b61183d565b3480156107c757600080fd5b506102ab611864565b3480156107dc57600080fd5b506102816107eb366004613265565b6001600160a01b039182166000908152606a6020908152604080832093909416825291909152205460ff1690565b34801561082557600080fd5b5061031061083436600461324b565b61188d565b60006001600160e01b0319821663152a902d60e11b148061085e575061085e8261192c565b92915050565b60606065805461087390613a8e565b80601f016020809104026020016040519081016040528092919081815260200182805461089f90613a8e565b80156108ec5780601f106108c1576101008083540402835291602001916108ec565b820191906000526020600020905b8154815290600101906020018083116108cf57829003601f168201915b5050505050905090565b600061090182611951565b6109675760405162461bcd60e51b815260206004820152602c60248201527f4552433732313a20617070726f76656420717565727920666f72206e6f6e657860448201526b34b9ba32b73a103a37b5b2b760a11b60648201526084015b60405180910390fd5b506000908152606960205260409020546001600160a01b031690565b600061098e826111e0565b9050806001600160a01b0316836001600160a01b031614156109fc5760405162461bcd60e51b815260206004820152602160248201527f4552433732313a20617070726f76616c20746f2063757272656e74206f776e656044820152603960f91b606482015260840161095e565b336001600160a01b0382161480610a185750610a1881336107eb565b610a8a5760405162461bcd60e51b815260206004820152603860248201527f4552433732313a20617070726f76652063616c6c6572206973206e6f74206f7760448201527f6e6572206e6f7220617070726f76656420666f7220616c6c0000000000000000606482015260840161095e565b610a94838361196e565b505050565b610aa333826119dc565b610abf5760405162461bcd60e51b815260040161095e90613909565b610a94838383611ac6565b600080806064610adb600586613a15565b610ae59190613a01565b6101c8546001600160a01b0316969095509350505050565b60008281526101916020526040902060010154610b1a8133611c71565b610a948383611cd5565b6000610b2f83611257565b8210610b915760405162461bcd60e51b815260206004820152602b60248201527f455243373231456e756d657261626c653a206f776e657220696e646578206f7560448201526a74206f6620626f756e647360a81b606482015260840161095e565b506001600160a01b0391909116600090815261015f60209081526040808320938352929052205490565b6001600160a01b0381163314610c2b5760405162461bcd60e51b815260206004820152602f60248201527f416363657373436f6e74726f6c3a2063616e206f6e6c792072656e6f756e636560448201526e103937b632b9903337b91039b2b63360891b606482015260840161095e565b610c358282611d5c565b5050565b306001600160a01b037f0000000000000000000000000000000000000000000000000000000000000000161415610c825760405162461bcd60e51b815260040161095e9061383c565b7f00000000000000000000000000000000000000000000000000000000000000006001600160a01b0316610cb4611dc4565b6001600160a01b031614610cda5760405162461bcd60e51b815260040161095e90613888565b610ce381611df2565b60408051600080825260208201909252610cff91839190611e48565b50565b610a94838383604051806020016040528060008152506117c1565b33610d27826111e0565b6001600160a01b031614610d735760405162461bcd60e51b815260206004820152601360248201527221b0b63632b91034b9903737ba1027bbb732b960691b604482015260640161095e565b610d7c81611f93565b60008181526101c4602052604081208181556001810180546001600160a01b031916905590610dae60028301826130d5565b6003820160009055505050565b306001600160a01b037f0000000000000000000000000000000000000000000000000000000000000000161415610e045760405162461bcd60e51b815260040161095e9061383c565b7f00000000000000000000000000000000000000000000000000000000000000006001600160a01b0316610e36611dc4565b6001600160a01b031614610e5c5760405162461bcd60e51b815260040161095e90613888565b610e6582611df2565b610c3582826001611e48565b6000610e7d6101615490565b8210610ee05760405162461bcd60e51b815260206004820152602c60248201527f455243373231456e756d657261626c653a20676c6f62616c20696e646578206f60448201526b7574206f6620626f756e647360a01b606482015260840161095e565b6101618281548110610f0257634e487b7160e01b600052603260045260246000fd5b90600052602060002001549050919050565b6101c78054610f2290613a8e565b80601f0160208091040260200160405190810160405280929190818152602001828054610f4e90613a8e565b8015610f9b5780601f10610f7057610100808354040283529160200191610f9b565b820191906000526020600020905b815481529060010190602001808311610f7e57829003601f168201915b505050505081565b600080610faf83611951565b15610fd057505060009081526101c460205260409020600301544281111591565b506000905080915091565b6000611e61610fea6101615490565b111561102c5760405162461bcd60e51b8152602060048201526011602482015270105b1b081d1bdad95b9cc81b5a5b9d1959607a1b604482015260640161095e565b6110567f9f2df0fed2c77648de5860a4cc508cd0818c85b8b8a1ab4ceeef8d981c8956a633611533565b61109b5760405162461bcd60e51b815260206004820152601660248201527521b0b63632b91034b9903737ba10309036b4b73a32b960511b604482015260640161095e565b600082116110eb5760405162461bcd60e51b815260206004820152601e60248201527f44617465206d7573742062652067726561746572207468616e207a65726f0000604482015260640161095e565b6110fa6101c380546001019055565b60006111066101c35490565b90506111123382611f9c565b60008560405160200161112591906135ff565b60405160208183030381529060405290506111408282611fb6565b6101c654611158906001600160a01b031660016115c3565b6040805160808101825260008082523360208084019182528385018a8152606085018a90528784526101c48252949092208351815590516001820180546001600160a01b0319166001600160a01b03909216919091179055925180519293926111c7926002850192019061310f565b50606091909101516003909101555090505b9392505050565b6000818152606760205260408120546001600160a01b03168061085e5760405162461bcd60e51b815260206004820152602960248201527f4552433732313a206f776e657220717565727920666f72206e6f6e657869737460448201526832b73a103a37b5b2b760b91b606482015260840161095e565b60006001600160a01b0382166112c25760405162461bcd60e51b815260206004820152602a60248201527f4552433732313a2062616c616e636520717565727920666f7220746865207a65604482015269726f206164647265737360b01b606482015260840161095e565b506001600160a01b031660009081526068602052604090205490565b61012d546001600160a01b031633146113095760405162461bcd60e51b815260040161095e906138d4565b6113136000612041565b565b6060600061132283611257565b905060008167ffffffffffffffff81111561134d57634e487b7160e01b600052604160045260246000fd5b604051908082528060200260200182016040528015611376578160200160208202803683370190505b5090508161139557505060408051600081526020810190915292915050565b60005b828110156113e7576113aa8582610b24565b8282815181106113ca57634e487b7160e01b600052603260045260246000fd5b6020908102919091010152806113df81613ac9565b915050611398565b509392505050565b600054610100900460ff1661140a5760005460ff161561140e565b303b155b6114715760405162461bcd60e51b815260206004820152602e60248201527f496e697469616c697a61626c653a20636f6e747261637420697320616c72656160448201526d191e481a5b9a5d1a585b1a5e995960921b606482015260840161095e565b600054610100900460ff16158015611493576000805461ffff19166101011790555b61149d8383612094565b6114a56120d5565b6114ad6120d5565b6114b5612114565b6114bd61214b565b6101c680546001600160a01b0386166001600160a01b0319918216179091556101c88054909116331790556114f06120d5565b6114fb600033612172565b60408051602081019182905260009081905261151a916101c59161310f565b50801561152d576000805461ff00191690555b50505050565b6000918252610191602090815260408084206001600160a01b0393909316845291905290205460ff1690565b60606066805461087390613a8e565b61012d546001600160a01b031633146115995760405162461bcd60e51b815260040161095e906138d4565b610cff7f9f2df0fed2c77648de5860a4cc508cd0818c85b8b8a1ab4ceeef8d981c8956a682610afd565b610c3533838361217c565b6000806000606060006115e086611951565b6116205760405162461bcd60e51b8152602060048201526011602482015270546f6b656e206d7573742065786973747360781b604482015260640161095e565b60008681526101c46020526040902060038101544210156116975760405162461bcd60e51b815260206004820152602b60248201527f4e6f772073686f756c642062652067726561746572207468616e20656e74697460448201526a6c656d656e74206461746560a81b606482015260840161095e565b805460018201549096506001600160a01b031694506116b5876111e0565b93508060020180546116c690613a8e565b80601f01602080910402602001604051908101604052809291908181526020018280546116f290613a8e565b801561173f5780601f106117145761010080835404028352916020019161173f565b820191906000526020600020905b81548152906001019060200180831161172257829003601f168201915b50505050509250806003015491505091939590929450565b61012d546001600160a01b031633146117825760405162461bcd60e51b815260040161095e906138d4565b6101c8546001600160a01b038281169116141561179e57600080fd5b6101c880546001600160a01b0319166001600160a01b0392909216919091179055565b6117cb33836119dc565b6117e75760405162461bcd60e51b815260040161095e90613909565b61152d8484848461224b565b61012d546001600160a01b0316331461181e5760405162461bcd60e51b815260040161095e906138d4565b8051610c35906101c590602084019061310f565b606061085e8261227e565b6000828152610191602052604090206001015461185a8133611c71565b610a948383611d5c565b60606101c5604051602001611879919061362e565b604051602081830303815290604052905090565b61012d546001600160a01b031633146118b85760405162461bcd60e51b815260040161095e906138d4565b6001600160a01b03811661191d5760405162461bcd60e51b815260206004820152602660248201527f4f776e61626c653a206e6577206f776e657220697320746865207a65726f206160448201526564647265737360d01b606482015260840161095e565b610cff81612041565b3b151590565b60006001600160e01b03198216637965db0b60e01b148061085e575061085e826123ed565b6000908152606760205260409020546001600160a01b0316151590565b600081815260696020526040902080546001600160a01b0319166001600160a01b03841690811790915581906119a3826111e0565b6001600160a01b03167f8c5be1e5ebec7d5bd14f71427d1e84f3dd0314c0f7b2291e5b200ac8c7c3b92560405160405180910390a45050565b60006119e782611951565b611a485760405162461bcd60e51b815260206004820152602c60248201527f4552433732313a206f70657261746f7220717565727920666f72206e6f6e657860448201526b34b9ba32b73a103a37b5b2b760a11b606482015260840161095e565b6000611a53836111e0565b9050806001600160a01b0316846001600160a01b03161480611a8e5750836001600160a01b0316611a83846108f6565b6001600160a01b0316145b80611abe57506001600160a01b038082166000908152606a602090815260408083209388168352929052205460ff165b949350505050565b826001600160a01b0316611ad9826111e0565b6001600160a01b031614611b415760405162461bcd60e51b815260206004820152602960248201527f4552433732313a207472616e73666572206f6620746f6b656e2074686174206960448201526839903737ba1037bbb760b91b606482015260840161095e565b6001600160a01b038216611ba35760405162461bcd60e51b8152602060048201526024808201527f4552433732313a207472616e7366657220746f20746865207a65726f206164646044820152637265737360e01b606482015260840161095e565b611bae838383612412565b611bb960008261196e565b6001600160a01b0383166000908152606860205260408120805460019290611be2908490613a34565b90915550506001600160a01b0382166000908152606860205260408120805460019290611c109084906139e9565b909155505060008181526067602052604080822080546001600160a01b0319166001600160a01b0386811691821790925591518493918716917fddf252ad1be2c89b69c2b068fc378daa952ba7f163c4a11628f55a4df523b3ef91a4505050565b611c7b8282611533565b610c3557611c93816001600160a01b0316601461241d565b611c9e83602061241d565b604051602001611caf9291906136e1565b60408051601f198184030181529082905262461bcd60e51b825261095e916004016137d7565b611cdf8282611533565b610c35576000828152610191602090815260408083206001600160a01b03851684529091529020805460ff19166001179055611d183390565b6001600160a01b0316816001600160a01b0316837f2f8788117e7eff1d82e926ec794901d17c78024a50270940304540a733656f0d60405160405180910390a45050565b611d668282611533565b15610c35576000828152610191602090815260408083206001600160a01b0385168085529252808320805460ff1916905551339285917ff6391f5c32d9c69d2a47ea670b442974b53935d1edc7fd64eb21e047a839171b9190a45050565b7f360894a13ba1a3210667c828492db98dca3e2076cc3735a920a3ca505d382bbc546001600160a01b031690565b61012d546001600160a01b03163314611e1d5760405162461bcd60e51b815260040161095e906138d4565b604080518082019091526003808252620322e360ec1b6020909201918252610c35916101c79161310f565b6000611e52611dc4565b9050611e5d846125ff565b600083511180611e6a5750815b15611e7b57611e7984846126a4565b505b7f4910fdfa16fed3260ed0e7147f7cc6da11a60208b5b9406d12a635614ffd9143805460ff16611f8c57805460ff191660011781556040516001600160a01b0383166024820152611efa90869060440160408051601f198184030181529190526020810180516001600160e01b0316631b2ce7f360e11b1790526126a4565b50805460ff19168155611f0b611dc4565b6001600160a01b0316826001600160a01b031614611f835760405162461bcd60e51b815260206004820152602f60248201527f45524331393637557067726164653a207570677261646520627265616b73206660448201526e75727468657220757067726164657360881b606482015260840161095e565b611f8c8561278f565b5050505050565b610cff816127cf565b610c3582826040518060200160405280600081525061280f565b611fbf82611951565b6120225760405162461bcd60e51b815260206004820152602e60248201527f45524337323155524953746f726167653a2055524920736574206f66206e6f6e60448201526d32bc34b9ba32b73a103a37b5b2b760911b606482015260840161095e565b60008281526097602090815260409091208251610a949284019061310f565b61012d80546001600160a01b038381166001600160a01b0319831681179093556040519116919082907f8be0079c531659141344cd1fd0a4f28419497f9722a3daafe3b4186f6b6457e090600090a35050565b600054610100900460ff166120bb5760405162461bcd60e51b815260040161095e9061395a565b6120c3612842565b6120cb612842565b610c358282612869565b600054610100900460ff166120fc5760405162461bcd60e51b815260040161095e9061395a565b612104612842565b61210c612842565b611313612842565b600054610100900460ff1661213b5760405162461bcd60e51b815260040161095e9061395a565b612143612842565b6113136128b7565b600054610100900460ff166121045760405162461bcd60e51b815260040161095e9061395a565b610c358282611cd5565b816001600160a01b0316836001600160a01b031614156121de5760405162461bcd60e51b815260206004820152601960248201527f4552433732313a20617070726f766520746f2063616c6c657200000000000000604482015260640161095e565b6001600160a01b038381166000818152606a6020908152604080832094871680845294825291829020805460ff191686151590811790915591519182527f17307eab39ab6107e8899845ad3d59bd9653f200f220920489ca2b5937696c31910160405180910390a3505050565b612256848484611ac6565b612262848484846128e7565b61152d5760405162461bcd60e51b815260040161095e906137ea565b606061228982611951565b6122ef5760405162461bcd60e51b815260206004820152603160248201527f45524337323155524953746f726167653a2055524920717565727920666f72206044820152703737b732bc34b9ba32b73a103a37b5b2b760791b606482015260840161095e565b6000828152609760205260408120805461230890613a8e565b80601f016020809104026020016040519081016040528092919081815260200182805461233490613a8e565b80156123815780601f1061235657610100808354040283529160200191612381565b820191906000526020600020905b81548152906001019060200180831161236457829003601f168201915b50505050509050600061239f60408051602081019091526000815290565b90508051600014156123b2575092915050565b8151156123e45780826040516020016123cc9291906135d0565b60405160208183030381529060405292505050919050565b611abe846129f4565b60006001600160e01b0319821663780e9d6360e01b148061085e575061085e82612acb565b610a94838383612b1b565b6060600061242c836002613a15565b6124379060026139e9565b67ffffffffffffffff81111561245d57634e487b7160e01b600052604160045260246000fd5b6040519080825280601f01601f191660200182016040528015612487576020820181803683370190505b509050600360fc1b816000815181106124b057634e487b7160e01b600052603260045260246000fd5b60200101906001600160f81b031916908160001a905350600f60fb1b816001815181106124ed57634e487b7160e01b600052603260045260246000fd5b60200101906001600160f81b031916908160001a9053506000612511846002613a15565b61251c9060016139e9565b90505b60018111156125b0576f181899199a1a9b1b9c1cb0b131b232b360811b85600f166010811061255e57634e487b7160e01b600052603260045260246000fd5b1a60f81b82828151811061258257634e487b7160e01b600052603260045260246000fd5b60200101906001600160f81b031916908160001a90535060049490941c936125a981613a77565b905061251f565b5083156111d95760405162461bcd60e51b815260206004820181905260248201527f537472696e67733a20686578206c656e67746820696e73756666696369656e74604482015260640161095e565b803b6126635760405162461bcd60e51b815260206004820152602d60248201527f455243313936373a206e657720696d706c656d656e746174696f6e206973206e60448201526c1bdd08184818dbdb9d1c9858dd609a1b606482015260840161095e565b7f360894a13ba1a3210667c828492db98dca3e2076cc3735a920a3ca505d382bbc80546001600160a01b0319166001600160a01b0392909216919091179055565b6060823b6127035760405162461bcd60e51b815260206004820152602660248201527f416464726573733a2064656c65676174652063616c6c20746f206e6f6e2d636f6044820152651b9d1c9858dd60d21b606482015260840161095e565b600080846001600160a01b03168460405161271e91906135b4565b600060405180830381855af49150503d8060008114612759576040519150601f19603f3d011682016040523d82523d6000602084013e61275e565b606091505b50915091506127868282604051806060016040528060278152602001613b5160279139612bd5565b95945050505050565b612798816125ff565b6040516001600160a01b038216907fbc7cd75a20ee27fd9adebab32041f755214dbc6bffa90cc0225b39da2e5c2d3b90600090a250565b6127d881612c0e565b600081815260976020526040902080546127f190613a8e565b159050610cff576000818152609760205260408120610cff916130d5565b6128198383612cb5565b61282660008484846128e7565b610a945760405162461bcd60e51b815260040161095e906137ea565b600054610100900460ff166113135760405162461bcd60e51b815260040161095e9061395a565b600054610100900460ff166128905760405162461bcd60e51b815260040161095e9061395a565b81516128a390606590602085019061310f565b508051610a9490606690602084019061310f565b600054610100900460ff166128de5760405162461bcd60e51b815260040161095e9061395a565b61131333612041565b60006001600160a01b0384163b156129e957604051630a85bd0160e11b81526001600160a01b0385169063150b7a029061292b903390899088908890600401613756565b602060405180830381600087803b15801561294557600080fd5b505af1925050508015612975575060408051601f3d908101601f19168201909252612972918101906134ae565b60015b6129cf573d8080156129a3576040519150601f19603f3d011682016040523d82523d6000602084013e6129a8565b606091505b5080516129c75760405162461bcd60e51b815260040161095e906137ea565b805181602001fd5b6001600160e01b031916630a85bd0160e11b149050611abe565b506001949350505050565b60606129ff82611951565b612a635760405162461bcd60e51b815260206004820152602f60248201527f4552433732314d657461646174613a2055524920717565727920666f72206e6f60448201526e3732bc34b9ba32b73a103a37b5b2b760891b606482015260840161095e565b6000612a7a60408051602081019091526000815290565b90506000815111612a9a57604051806020016040528060008152506111d9565b80612aa484612df4565b604051602001612ab59291906135d0565b6040516020818303038152906040529392505050565b60006001600160e01b031982166380ac58cd60e01b1480612afc57506001600160e01b03198216635b5e139f60e01b145b8061085e57506301ffc9a760e01b6001600160e01b031983161461085e565b6001600160a01b038316612b7857612b73816101618054600083815261016260205260408120829055600182018355919091527fafbb1c043347995df017ce3291b765e028ad5f784d2aa00c3f5e073760a4de8b0155565b612b9b565b816001600160a01b0316836001600160a01b031614612b9b57612b9b8382612f0e565b6001600160a01b038216612bb257610a9481612fb0565b826001600160a01b0316826001600160a01b031614610a9457610a94828261308f565b60608315612be45750816111d9565b825115612bf45782518084602001fd5b8160405162461bcd60e51b815260040161095e91906137d7565b6000612c19826111e0565b9050612c2781600084612412565b612c3260008361196e565b6001600160a01b0381166000908152606860205260408120805460019290612c5b908490613a34565b909155505060008281526067602052604080822080546001600160a01b0319169055518391906001600160a01b038416907fddf252ad1be2c89b69c2b068fc378daa952ba7f163c4a11628f55a4df523b3ef908390a45050565b6001600160a01b038216612d0b5760405162461bcd60e51b815260206004820181905260248201527f4552433732313a206d696e7420746f20746865207a65726f2061646472657373604482015260640161095e565b612d1481611951565b15612d615760405162461bcd60e51b815260206004820152601c60248201527f4552433732313a20746f6b656e20616c7265616479206d696e74656400000000604482015260640161095e565b612d6d60008383612412565b6001600160a01b0382166000908152606860205260408120805460019290612d969084906139e9565b909155505060008181526067602052604080822080546001600160a01b0319166001600160a01b03861690811790915590518392907fddf252ad1be2c89b69c2b068fc378daa952ba7f163c4a11628f55a4df523b3ef908290a45050565b606081612e185750506040805180820190915260018152600360fc1b602082015290565b8160005b8115612e425780612e2c81613ac9565b9150612e3b9050600a83613a01565b9150612e1c565b60008167ffffffffffffffff811115612e6b57634e487b7160e01b600052604160045260246000fd5b6040519080825280601f01601f191660200182016040528015612e95576020820181803683370190505b5090505b8415611abe57612eaa600183613a34565b9150612eb7600a86613ae4565b612ec29060306139e9565b60f81b818381518110612ee557634e487b7160e01b600052603260045260246000fd5b60200101906001600160f81b031916908160001a905350612f07600a86613a01565b9450612e99565b60006001612f1b84611257565b612f259190613a34565b60008381526101606020526040902054909150808214612f7b576001600160a01b038416600090815261015f60209081526040808320858452825280832054848452818420819055835261016090915290208190555b506000918252610160602090815260408084208490556001600160a01b03909416835261015f81528383209183525290812055565b61016154600090612fc390600190613a34565b600083815261016260205260408120546101618054939450909284908110612ffb57634e487b7160e01b600052603260045260246000fd5b9060005260206000200154905080610161838154811061302b57634e487b7160e01b600052603260045260246000fd5b6000918252602080832090910192909255828152610162909152604080822084905585825281205561016180548061307357634e487b7160e01b600052603160045260246000fd5b6001900381819060005260206000200160009055905550505050565b600061309a83611257565b6001600160a01b03909316600090815261015f6020908152604080832086845282528083208590559382526101609052919091209190915550565b5080546130e190613a8e565b6000825580601f106130f1575050565b601f016020900490600052602060002090810190610cff9190613193565b82805461311b90613a8e565b90600052602060002090601f01602090048101928261313d5760008555613183565b82601f1061315657805160ff1916838001178555613183565b82800160010185558215613183579182015b82811115613183578251825591602001919060010190613168565b5061318f929150613193565b5090565b5b8082111561318f5760008155600101613194565b80356001600160a01b03811681146131bf57600080fd5b919050565b600082601f8301126131d4578081fd5b813567ffffffffffffffff808211156131ef576131ef613b24565b604051601f8301601f19908116603f0116810190828211818310171561321757613217613b24565b8160405283815286602085880101111561322f578485fd5b8360208701602083013792830160200193909352509392505050565b60006020828403121561325c578081fd5b6111d9826131a8565b60008060408385031215613277578081fd5b613280836131a8565b915061328e602084016131a8565b90509250929050565b6000806000606084860312156132ab578081fd5b6132b4846131a8565b92506132c2602085016131a8565b9150604084013590509250925092565b600080600080608085870312156132e7578081fd5b6132f0856131a8565b93506132fe602086016131a8565b925060408501359150606085013567ffffffffffffffff811115613320578182fd5b61332c878288016131c4565b91505092959194509250565b6000806040838503121561334a578182fd5b613353836131a8565b915060208301358015158114613367578182fd5b809150509250929050565b60008060408385031215613384578182fd5b61338d836131a8565b9150602083013567ffffffffffffffff8111156133a8578182fd5b6133b4858286016131c4565b9150509250929050565b6000806000606084860312156133d2578283fd5b6133db846131a8565b9250602084013567ffffffffffffffff808211156133f7578384fd5b613403878388016131c4565b93506040860135915080821115613418578283fd5b50613425868287016131c4565b9150509250925092565b60008060408385031215613441578182fd5b61344a836131a8565b946020939093013593505050565b600060208284031215613469578081fd5b5035919050565b60008060408385031215613482578182fd5b8235915061328e602084016131a8565b6000602082840312156134a3578081fd5b81356111d981613b3a565b6000602082840312156134bf578081fd5b81516111d981613b3a565b6000602082840312156134db578081fd5b813567ffffffffffffffff8111156134f1578182fd5b611abe848285016131c4565b600080600060608486031215613511578081fd5b833567ffffffffffffffff80821115613528578283fd5b613534878388016131c4565b94506020860135915080821115613549578283fd5b50613556868287016131c4565b925050604084013590509250925092565b60008060408385031215613579578182fd5b50508035926020909101359150565b600081518084526135a0816020860160208601613a4b565b601f01601f19169290920160200192915050565b600082516135c6818460208701613a4b565b9190910192915050565b600083516135e2818460208801613a4b565b8351908301906135f6818360208801613a4b565b01949350505050565b66697066733a2f2f60c81b815260008251613621816007850160208701613a4b565b9190910160070192915050565b66697066733a2f2f60c81b81526000600781845483600182811c91508083168061365957607f831692505b602080841082141561367957634e487b7160e01b88526022600452602488fd5b81801561368d57600181146136a2576136d2565b60ff1986168a890152848a01880196506136d2565b60008b815260209020895b868110156136c85781548c82018b01529085019083016136ad565b505087858b010196505b50949998505050505050505050565b7f416363657373436f6e74726f6c3a206163636f756e7420000000000000000000815260008351613719816017850160208801613a4b565b7001034b99036b4b9b9b4b733903937b6329607d1b601791840191820152835161374a816028840160208801613a4b565b01602801949350505050565b6001600160a01b038581168252841660208201526040810183905260806060820181905260009061378990830184613588565b9695505050505050565b6020808252825182820181905260009190848201906040850190845b818110156137cb578351835292840192918401916001016137af565b50909695505050505050565b6020815260006111d96020830184613588565b60208082526032908201527f4552433732313a207472616e7366657220746f206e6f6e20455243373231526560408201527131b2b4bb32b91034b6b83632b6b2b73a32b960711b606082015260800190565b6020808252602c908201527f46756e6374696f6e206d7573742062652063616c6c6564207468726f7567682060408201526b19195b1959d85d1958d85b1b60a21b606082015260800190565b6020808252602c908201527f46756e6374696f6e206d7573742062652063616c6c6564207468726f7567682060408201526b6163746976652070726f787960a01b606082015260800190565b6020808252818101527f4f776e61626c653a2063616c6c6572206973206e6f7420746865206f776e6572604082015260600190565b60208082526031908201527f4552433732313a207472616e736665722063616c6c6572206973206e6f74206f6040820152701ddb995c881b9bdc88185c1c1c9bdd9959607a1b606082015260800190565b6020808252602b908201527f496e697469616c697a61626c653a20636f6e7472616374206973206e6f74206960408201526a6e697469616c697a696e6760a81b606082015260800190565b8581526001600160a01b0385811660208301528416604082015260a0606082018190526000906139d790830185613588565b90508260808301529695505050505050565b600082198211156139fc576139fc613af8565b500190565b600082613a1057613a10613b0e565b500490565b6000816000190483118215151615613a2f57613a2f613af8565b500290565b600082821015613a4657613a46613af8565b500390565b60005b83811015613a66578181015183820152602001613a4e565b8381111561152d5750506000910152565b600081613a8657613a86613af8565b506000190190565b600181811c90821680613aa257607f821691505b60208210811415613ac357634e487b7160e01b600052602260045260246000fd5b50919050565b6000600019821415613add57613add613af8565b5060010190565b600082613af357613af3613b0e565b500690565b634e487b7160e01b600052601160045260246000fd5b634e487b7160e01b600052601260045260246000fd5b634e487b7160e01b600052604160045260246000fd5b6001600160e01b031981168114610cff57600080fdfe416464726573733a206c6f772d6c6576656c2064656c65676174652063616c6c206661696c6564a2646970667358221220213086b802cb34a7560b6a4f14c88ae3fe5dbfd5238fe0234bd444e0b195051864736f6c63430008040033",
  "linkReferences": {},
  "deployedLinkReferences": {}
}