{
  "_format": "hh-sol-artifact-1",
  "contractName": "SimpleAuction",
  "sourceName": "contracts/SimpleAuction.sol",
  "abi": [
    {
      "inputs": [
        {
          "internalType": "uint256",
          "name": "biddingTime",
          "type": "uint256"
        },
        {
          "internalType": "address payable",
          "name": "beneficiaryAddress",
          "type": "address"
        }
      ],
      "stateMutability": "nonpayable",
      "type": "constructor"
    },
    {
      "inputs": [],
      "name": "AuctionAlreadyEnded",
      "type": "error"
    },
    {
      "inputs": [],
      "name": "AuctionEndAlreadyCalled",
      "type": "error"
    },
    {
      "inputs": [],
      "name": "AuctionNotYetEnded",
      "type": "error"
    },
    {
      "inputs": [
        {
          "internalType": "uint256",
          "name": "highestBid",
          "type": "uint256"
        }
      ],
      "name": "BidNotHighEnough",
      "type": "error"
    },
    {
      "anonymous": false,
      "inputs": [
        {
          "indexed": false,
          "internalType": "address",
          "name": "winner",
          "type": "address"
        },
        {
          "indexed": false,
          "internalType": "uint256",
          "name": "amount",
          "type": "uint256"
        }
      ],
      "name": "AuctionEnded",
      "type": "event"
    },
    {
      "anonymous": false,
      "inputs": [
        {
          "indexed": false,
          "internalType": "address",
          "name": "bidder",
          "type": "address"
        },
        {
          "indexed": false,
          "internalType": "uint256",
          "name": "amount",
          "type": "uint256"
        }
      ],
      "name": "HighestBidIncreased",
      "type": "event"
    },
    {
      "inputs": [],
      "name": "auctionEnd",
      "outputs": [],
      "stateMutability": "nonpayable",
      "type": "function"
    },
    {
      "inputs": [],
      "name": "auctionEndTime",
      "outputs": [
        {
          "internalType": "uint256",
          "name": "",
          "type": "uint256"
        }
      ],
      "stateMutability": "view",
      "type": "function"
    },
    {
      "inputs": [],
      "name": "beneficiary",
      "outputs": [
        {
          "internalType": "address payable",
          "name": "",
          "type": "address"
        }
      ],
      "stateMutability": "view",
      "type": "function"
    },
    {
      "inputs": [],
      "name": "bid",
      "outputs": [],
      "stateMutability": "payable",
      "type": "function"
    },
    {
      "inputs": [
        {
          "internalType": "address",
          "name": "nftContract",
          "type": "address"
        },
        {
          "internalType": "uint256",
          "name": "tokenId",
          "type": "uint256"
        }
      ],
      "name": "createAuction",
      "outputs": [],
      "stateMutability": "nonpayable",
      "type": "function"
    },
    {
      "inputs": [],
      "name": "highestBid",
      "outputs": [
        {
          "internalType": "uint256",
          "name": "",
          "type": "uint256"
        }
      ],
      "stateMutability": "view",
      "type": "function"
    },
    {
      "inputs": [],
      "name": "highestBidder",
      "outputs": [
        {
          "internalType": "address",
          "name": "",
          "type": "address"
        }
      ],
      "stateMutability": "view",
      "type": "function"
    },
    {
      "inputs": [
        {
          "internalType": "address",
          "name": "",
          "type": "address"
        },
        {
          "internalType": "address",
          "name": "",
          "type": "address"
        },
        {
          "internalType": "uint256",
          "name": "",
          "type": "uint256"
        },
        {
          "internalType": "bytes",
          "name": "",
          "type": "bytes"
        }
      ],
      "name": "onERC721Received",
      "outputs": [
        {
          "internalType": "bytes4",
          "name": "",
          "type": "bytes4"
        }
      ],
      "stateMutability": "nonpayable",
      "type": "function"
    },
    {
      "inputs": [],
      "name": "withdraw",
      "outputs": [
        {
          "internalType": "bool",
          "name": "",
          "type": "bool"
        }
      ],
      "stateMutability": "nonpayable",
      "type": "function"
    }
  ],
  "bytecode": "0x6080604052603a805460ff1916905534801561001a57600080fd5b5060405161075838038061075883398101604081905261003991610069565b603380546001600160a01b0319166001600160a01b03831617905561005e82426100a4565b603455506100c89050565b6000806040838503121561007b578182fd5b825160208401519092506001600160a01b0381168114610099578182fd5b809150509250929050565b600082198211156100c357634e487b7160e01b81526011600452602481fd5b500190565b610681806100d76000396000f3fe6080604052600436106100865760003560e01c80633ccfd60b116100595780633ccfd60b1461012b5780634b449cba1461015057806391f9015714610174578063d57bde7914610194578063f7e88298146101aa57600080fd5b8063150b7a021461008b5780631998aeef146100d45780632a24f46c146100de57806338af3eed146100f3575b600080fd5b34801561009757600080fd5b506100b66100a6366004610513565b630a85bd0160e11b949350505050565b6040516001600160e01b031990911681526020015b60405180910390f35b6100dc6101ca565b005b3480156100ea57600080fd5b506100dc6102b0565b3480156100ff57600080fd5b50603354610113906001600160a01b031681565b6040516001600160a01b0390911681526020016100cb565b34801561013757600080fd5b50610140610404565b60405190151581526020016100cb565b34801561015c57600080fd5b5061016660345481565b6040519081526020016100cb565b34801561018057600080fd5b50603554610113906001600160a01b031681565b3480156101a057600080fd5b5061016660365481565b3480156101b657600080fd5b506100dc6101c53660046105e8565b610468565b6034544211156101ed5760405163d02e774d60e01b815260040160405180910390fd5b603654341161021e57603654604051634e12c1bb60e01b815260040161021591815260200190565b60405180910390fd5b60365415610259576036546035546001600160a01b031660009081526037602052604081208054909190610253908490610611565b90915550505b603580546001600160a01b031916339081179091553460368190556040805192835260208301919091527ff4757a49b326036464bec6fe419a4ae38c8a02ce3e68bf0809674f6aab8ad300910160405180910390a1565b6034544210156102d35760405163044cee2960e41b815260040160405180910390fd5b60385460ff16156102f757604051630c39fb9f60e31b815260040160405180910390fd5b6038805460ff19166001179055603554603654604080516001600160a01b03909316835260208301919091527fdaec4582d5d9595688c8c98545fdd1c696d41c6aeaeb636737e84ed2f5c00eda910160405180910390a16033546036546040516001600160a01b039092169181156108fc0291906000818181858888f1935050505015801561038a573d6000803e3d6000fd5b50603854603554603954604051632142170760e11b81523060048201526001600160a01b039283166024820152604481019190915261010090920416906342842e0e90606401600060405180830381600087803b1580156103ea57600080fd5b505af11580156103fe573d6000803e3d6000fd5b50505050565b33600090815260376020526040812054801561046057336000818152603760205260408082208290555183156108fc0291849190818181858888f193505050506104605733600090815260376020526040812091909155919050565b600191505090565b60388054610100600160a81b0319166101006001600160a01b03858116820292909217928390556039849055604051632142170760e11b815233600482015230602482015260448101859052920416906342842e0e90606401600060405180830381600087803b1580156104db57600080fd5b505af11580156104ef573d6000803e3d6000fd5b505050505050565b80356001600160a01b038116811461050e57600080fd5b919050565b60008060008060808587031215610528578384fd5b610531856104f7565b935061053f602086016104f7565b925060408501359150606085013567ffffffffffffffff80821115610562578283fd5b818701915087601f830112610575578283fd5b81358181111561058757610587610635565b604051601f8201601f19908116603f011681019083821181831017156105af576105af610635565b816040528281528a60208487010111156105c7578586fd5b82602086016020830137918201602001949094529598949750929550505050565b600080604083850312156105fa578182fd5b610603836104f7565b946020939093013593505050565b6000821982111561063057634e487b7160e01b81526011600452602481fd5b500190565b634e487b7160e01b600052604160045260246000fdfea2646970667358221220c9808c56b6af98412fb7431b538b64542a280aa65d7420d028d70f888f0f473d64736f6c63430008040033",
  "linkReferences": {},
  "deployedLinkReferences": {}
}