{
  "_format": "hh-sol-artifact-1",
  "contractName": "Auction",
  "sourceName": "contracts/Auction.sol",
  "abi": [
    {
      "inputs": [],
      "stateMutability": "nonpayable",
      "type": "constructor"
    },
    {
      "inputs": [],
      "name": "AuctionAlreadyEnded",
      "type": "error"
    },
    {
      "inputs": [],
      "name": "AuctionEndAlreadyCalled",
      "type": "error"
    },
    {
      "inputs": [],
      "name": "AuctionNotYetEnded",
      "type": "error"
    },
    {
      "inputs": [
        {
          "internalType": "uint256",
          "name": "highestBid",
          "type": "uint256"
        }
      ],
      "name": "BidNotHighEnough",
      "type": "error"
    },
    {
      "anonymous": false,
      "inputs": [
        {
          "indexed": false,
          "internalType": "address",
          "name": "previousAdmin",
          "type": "address"
        },
        {
          "indexed": false,
          "internalType": "address",
          "name": "newAdmin",
          "type": "address"
        }
      ],
      "name": "AdminChanged",
      "type": "event"
    },
    {
      "anonymous": false,
      "inputs": [
        {
          "indexed": false,
          "internalType": "address",
          "name": "winner",
          "type": "address"
        },
        {
          "indexed": false,
          "internalType": "uint256",
          "name": "amount",
          "type": "uint256"
        }
      ],
      "name": "AuctionEnded",
      "type": "event"
    },
    {
      "anonymous": false,
      "inputs": [
        {
          "indexed": true,
          "internalType": "address",
          "name": "beacon",
          "type": "address"
        }
      ],
      "name": "BeaconUpgraded",
      "type": "event"
    },
    {
      "anonymous": false,
      "inputs": [
        {
          "indexed": false,
          "internalType": "address",
          "name": "bidder",
          "type": "address"
        },
        {
          "indexed": false,
          "internalType": "uint256",
          "name": "amount",
          "type": "uint256"
        }
      ],
      "name": "HighestBidIncreased",
      "type": "event"
    },
    {
      "anonymous": false,
      "inputs": [
        {
          "indexed": true,
          "internalType": "address",
          "name": "previousOwner",
          "type": "address"
        },
        {
          "indexed": true,
          "internalType": "address",
          "name": "newOwner",
          "type": "address"
        }
      ],
      "name": "OwnershipTransferred",
      "type": "event"
    },
    {
      "anonymous": false,
      "inputs": [
        {
          "indexed": true,
          "internalType": "address",
          "name": "implementation",
          "type": "address"
        }
      ],
      "name": "Upgraded",
      "type": "event"
    },
    {
      "inputs": [],
      "name": "auctionEnd",
      "outputs": [],
      "stateMutability": "nonpayable",
      "type": "function"
    },
    {
      "inputs": [],
      "name": "auctionEndTime",
      "outputs": [
        {
          "internalType": "uint256",
          "name": "",
          "type": "uint256"
        }
      ],
      "stateMutability": "view",
      "type": "function"
    },
    {
      "inputs": [],
      "name": "beneficiary",
      "outputs": [
        {
          "internalType": "address payable",
          "name": "",
          "type": "address"
        }
      ],
      "stateMutability": "view",
      "type": "function"
    },
    {
      "inputs": [],
      "name": "bid",
      "outputs": [],
      "stateMutability": "payable",
      "type": "function"
    },
    {
      "inputs": [
        {
          "internalType": "address",
          "name": "nftContract",
          "type": "address"
        },
        {
          "internalType": "uint256",
          "name": "tokenId",
          "type": "uint256"
        }
      ],
      "name": "createAuction",
      "outputs": [],
      "stateMutability": "nonpayable",
      "type": "function"
    },
    {
      "inputs": [],
      "name": "highestBid",
      "outputs": [
        {
          "internalType": "uint256",
          "name": "",
          "type": "uint256"
        }
      ],
      "stateMutability": "view",
      "type": "function"
    },
    {
      "inputs": [],
      "name": "highestBidder",
      "outputs": [
        {
          "internalType": "address",
          "name": "",
          "type": "address"
        }
      ],
      "stateMutability": "view",
      "type": "function"
    },
    {
      "inputs": [
        {
          "internalType": "uint256",
          "name": "biddingTime",
          "type": "uint256"
        },
        {
          "internalType": "address payable",
          "name": "beneficiaryAddress",
          "type": "address"
        }
      ],
      "name": "initialize",
      "outputs": [],
      "stateMutability": "nonpayable",
      "type": "function"
    },
    {
      "inputs": [
        {
          "internalType": "address",
          "name": "",
          "type": "address"
        },
        {
          "internalType": "address",
          "name": "",
          "type": "address"
        },
        {
          "internalType": "uint256",
          "name": "",
          "type": "uint256"
        },
        {
          "internalType": "bytes",
          "name": "",
          "type": "bytes"
        }
      ],
      "name": "onERC721Received",
      "outputs": [
        {
          "internalType": "bytes4",
          "name": "",
          "type": "bytes4"
        }
      ],
      "stateMutability": "nonpayable",
      "type": "function"
    },
    {
      "inputs": [],
      "name": "owner",
      "outputs": [
        {
          "internalType": "address",
          "name": "",
          "type": "address"
        }
      ],
      "stateMutability": "view",
      "type": "function"
    },
    {
      "inputs": [
        {
          "internalType": "address",
          "name": "dest",
          "type": "address"
        }
      ],
      "name": "payments",
      "outputs": [
        {
          "internalType": "uint256",
          "name": "",
          "type": "uint256"
        }
      ],
      "stateMutability": "view",
      "type": "function"
    },
    {
      "inputs": [],
      "name": "renounceOwnership",
      "outputs": [],
      "stateMutability": "nonpayable",
      "type": "function"
    },
    {
      "inputs": [
        {
          "internalType": "address",
          "name": "newOwner",
          "type": "address"
        }
      ],
      "name": "transferOwnership",
      "outputs": [],
      "stateMutability": "nonpayable",
      "type": "function"
    },
    {
      "inputs": [
        {
          "internalType": "address",
          "name": "newImplementation",
          "type": "address"
        }
      ],
      "name": "upgradeTo",
      "outputs": [],
      "stateMutability": "nonpayable",
      "type": "function"
    },
    {
      "inputs": [
        {
          "internalType": "address",
          "name": "newImplementation",
          "type": "address"
        },
        {
          "internalType": "bytes",
          "name": "data",
          "type": "bytes"
        }
      ],
      "name": "upgradeToAndCall",
      "outputs": [],
      "stateMutability": "payable",
      "type": "function"
    },
    {
      "inputs": [],
      "name": "version",
      "outputs": [
        {
          "internalType": "string",
          "name": "",
          "type": "string"
        }
      ],
      "stateMutability": "view",
      "type": "function"
    },
    {
      "inputs": [
        {
          "internalType": "address payable",
          "name": "payee",
          "type": "address"
        }
      ],
      "name": "withdrawPayments",
      "outputs": [],
      "stateMutability": "nonpayable",
      "type": "function"
    }
  ],
  "bytecode": "0x60a06040523060601b6080523480156200001857600080fd5b50600054610100900460ff16620000365760005460ff161562000040565b62000040620000e5565b620000a85760405162461bcd60e51b815260206004820152602e60248201527f496e697469616c697a61626c653a20636f6e747261637420697320616c72656160448201526d191e481a5b9a5d1a585b1a5e995960921b606482015260840160405180910390fd5b600054610100900460ff16158015620000cb576000805461ffff19166101011790555b8015620000de576000805461ff00191690555b5062000109565b6000620000fd306200010360201b62000aaa1760201c565b15905090565b3b151590565b60805160601c611d4a6200013d600039600081816105ab015281816105eb0152818161067401526106b40152611d4a6000f3fe6080604052600436106100fe5760003560e01c806354fd4d5011610095578063d57bde7911610064578063d57bde7914610292578063da35a26f146102a9578063e2982c21146102c9578063f2fde38b146102e9578063f7e882981461030957600080fd5b806354fd4d501461021c578063715018a61461023e5780638da5cb5b1461025357806391f901571461027157600080fd5b80633659cfe6116100d15780633659cfe61461018b57806338af3eed146101ab5780634b449cba146101e45780634f1ef2861461020957600080fd5b8063150b7a02146101035780631998aeef1461014c5780632a24f46c1461015657806331b3eb941461016b575b600080fd5b34801561010f57600080fd5b5061012e61011e366004611248565b630a85bd0160e11b949350505050565b6040516001600160e01b031990911681526020015b60405180910390f35b610154610329565b005b34801561016257600080fd5b506101546103fd565b34801561017757600080fd5b5061015461018636600461122c565b610537565b34801561019757600080fd5b506101546101a636600461122c565b6105a0565b3480156101b757600080fd5b5061015f546101cc906001600160a01b031681565b6040516001600160a01b039091168152602001610143565b3480156101f057600080fd5b506101fb6101605481565b604051908152602001610143565b6101546102173660046112b2565b610669565b34801561022857600080fd5b50610231610723565b604051610143919061138e565b34801561024a57600080fd5b506101546107b2565b34801561025f57600080fd5b5060fb546001600160a01b03166101cc565b34801561027d57600080fd5b50610161546101cc906001600160a01b031681565b34801561029e57600080fd5b506101fb6101625481565b3480156102b557600080fd5b506101546102c4366004611343565b6107e8565b3480156102d557600080fd5b506101fb6102e436600461122c565b6108f6565b3480156102f557600080fd5b5061015461030436600461122c565b610981565b34801561031557600080fd5b50610154610324366004611300565b610a19565b6101605442111561034d5760405163d02e774d60e01b815260040160405180910390fd5b6101625434116103805761016254604051634e12c1bb60e01b815260040161037791815260200190565b60405180910390fd5b61016254156103a45761016154610162546103a4916001600160a01b031690610ab0565b61016180546001600160a01b03191633908117909155346101628190556040805192835260208301919091527ff4757a49b326036464bec6fe419a4ae38c8a02ce3e68bf0809674f6aab8ad300910160405180910390a1565b610160544210156104215760405163044cee2960e41b815260040160405180910390fd5b6101635460ff161561044657604051630c39fb9f60e31b815260040160405180910390fd5b610163805460ff191660011790556101615461016254604080516001600160a01b03909316835260208301919091527fdaec4582d5d9595688c8c98545fdd1c696d41c6aeaeb636737e84ed2f5c00eda910160405180910390a161015f54610162546104bb916001600160a01b031690610ab0565b610163546101615461016454604051632142170760e11b81523060048201526001600160a01b039283166024820152604481019190915261010090920416906342842e0e90606401600060405180830381600087803b15801561051d57600080fd5b505af1158015610531573d6000803e3d6000fd5b50505050565b6000546040516351cff8d960e01b81526001600160a01b03838116600483015262010000909204909116906351cff8d990602401600060405180830381600087803b15801561058557600080fd5b505af1158015610599573d6000803e3d6000fd5b5050505050565b306001600160a01b037f00000000000000000000000000000000000000000000000000000000000000001614156105e95760405162461bcd60e51b8152600401610377906113c1565b7f00000000000000000000000000000000000000000000000000000000000000006001600160a01b031661061b610b1c565b6001600160a01b0316146106415760405162461bcd60e51b81526004016103779061140d565b61064a81610b4a565b6040805160008082526020820190925261066691839190610b9f565b50565b306001600160a01b037f00000000000000000000000000000000000000000000000000000000000000001614156106b25760405162461bcd60e51b8152600401610377906113c1565b7f00000000000000000000000000000000000000000000000000000000000000006001600160a01b03166106e4610b1c565b6001600160a01b03161461070a5760405162461bcd60e51b81526004016103779061140d565b61071382610b4a565b61071f82826001610b9f565b5050565b610165805461073190611529565b80601f016020809104026020016040519081016040528092919081815260200182805461075d90611529565b80156107aa5780601f1061077f576101008083540402835291602001916107aa565b820191906000526020600020905b81548152906001019060200180831161078d57829003601f168201915b505050505081565b60fb546001600160a01b031633146107dc5760405162461bcd60e51b815260040161037790611459565b6107e66000610ce3565b565b600054610100900460ff166108035760005460ff1615610807565b303b155b61086a5760405162461bcd60e51b815260206004820152602e60248201527f496e697469616c697a61626c653a20636f6e747261637420697320616c72656160448201526d191e481a5b9a5d1a585b1a5e995960921b6064820152608401610377565b600054610100900460ff1615801561088c576000805461ffff19166101011790555b610894610d35565b61089c610d6c565b6108a4610da3565b61015f80546001600160a01b0319166001600160a01b0384161790556108ca83426114d9565b61016055610166805460ff1916905560006101625580156108f1576000805461ff00191690555b505050565b600080546040516371d4ed8d60e11b81526001600160a01b038481166004830152620100009092049091169063e3a9db1a9060240160206040518083038186803b15801561094357600080fd5b505afa158015610957573d6000803e3d6000fd5b505050506040513d601f19601f8201168201806040525081019061097b919061132b565b92915050565b60fb546001600160a01b031633146109ab5760405162461bcd60e51b815260040161037790611459565b6001600160a01b038116610a105760405162461bcd60e51b815260206004820152602660248201527f4f776e61626c653a206e6577206f776e657220697320746865207a65726f206160448201526564647265737360d01b6064820152608401610377565b61066681610ce3565b6101638054610100600160a81b0319166101006001600160a01b0385811682029290921792839055610164849055604051632142170760e11b815233600482015230602482015260448101859052920416906342842e0e90606401600060405180830381600087803b158015610a8e57600080fd5b505af1158015610aa2573d6000803e3d6000fd5b505050505050565b3b151590565b60005460405163f340fa0160e01b81526001600160a01b038481166004830152620100009092049091169063f340fa019083906024016000604051808303818588803b158015610aff57600080fd5b505af1158015610b13573d6000803e3d6000fd5b50505050505050565b7f360894a13ba1a3210667c828492db98dca3e2076cc3735a920a3ca505d382bbc546001600160a01b031690565b60fb546001600160a01b03163314610b745760405162461bcd60e51b815260040161037790611459565b604080518082019091526003808252620322e360ec1b602090920191825261071f91610165916110ff565b6000610ba9610b1c565b9050610bb484610dd2565b600083511180610bc15750815b15610bd257610bd08484610e77565b505b7f4910fdfa16fed3260ed0e7147f7cc6da11a60208b5b9406d12a635614ffd9143805460ff1661059957805460ff191660011781556040516001600160a01b0383166024820152610c5190869060440160408051601f198184030181529190526020810180516001600160e01b0316631b2ce7f360e11b179052610e77565b50805460ff19168155610c62610b1c565b6001600160a01b0316826001600160a01b031614610cda5760405162461bcd60e51b815260206004820152602f60248201527f45524331393637557067726164653a207570677261646520627265616b73206660448201526e75727468657220757067726164657360881b6064820152608401610377565b61059985610f62565b60fb80546001600160a01b038381166001600160a01b0319831681179093556040519116919082907f8be0079c531659141344cd1fd0a4f28419497f9722a3daafe3b4186f6b6457e090600090a35050565b600054610100900460ff16610d5c5760405162461bcd60e51b81526004016103779061148e565b610d64610fa2565b6107e6610fc9565b600054610100900460ff16610d935760405162461bcd60e51b81526004016103779061148e565b610d9b610fa2565b6107e6610fa2565b600054610100900460ff16610dca5760405162461bcd60e51b81526004016103779061148e565b6107e6610ff9565b803b610e365760405162461bcd60e51b815260206004820152602d60248201527f455243313936373a206e657720696d706c656d656e746174696f6e206973206e60448201526c1bdd08184818dbdb9d1c9858dd609a1b6064820152608401610377565b7f360894a13ba1a3210667c828492db98dca3e2076cc3735a920a3ca505d382bbc80546001600160a01b0319166001600160a01b0392909216919091179055565b6060823b610ed65760405162461bcd60e51b815260206004820152602660248201527f416464726573733a2064656c65676174652063616c6c20746f206e6f6e2d636f6044820152651b9d1c9858dd60d21b6064820152608401610377565b600080846001600160a01b031684604051610ef19190611372565b600060405180830381855af49150503d8060008114610f2c576040519150601f19603f3d011682016040523d82523d6000602084013e610f31565b606091505b5091509150610f598282604051806060016040528060278152602001611cee602791396110bf565b95945050505050565b610f6b81610dd2565b6040516001600160a01b038216907fbc7cd75a20ee27fd9adebab32041f755214dbc6bffa90cc0225b39da2e5c2d3b90600090a250565b600054610100900460ff166107e65760405162461bcd60e51b81526004016103779061148e565b600054610100900460ff16610ff05760405162461bcd60e51b81526004016103779061148e565b6107e633610ce3565b600054610100900460ff166110205760405162461bcd60e51b81526004016103779061148e565b60405161102c90611183565b604051809103906000f080158015611048573d6000803e3d6000fd5b50600060026101000a8154816001600160a01b0302191690836001600160a01b03160217905550600060029054906101000a90046001600160a01b03166001600160a01b0316638129fc1c6040518163ffffffff1660e01b8152600401600060405180830381600087803b15801561051d57600080fd5b606083156110ce5750816110f8565b8251156110de5782518084602001fd5b8160405162461bcd60e51b8152600401610377919061138e565b9392505050565b82805461110b90611529565b90600052602060002090601f01602090048101928261112d5760008555611173565b82601f1061114657805160ff1916838001178555611173565b82800160010185558215611173579182015b82811115611173578251825591602001919060010190611158565b5061117f929150611190565b5090565b61075e8061159083390190565b5b8082111561117f5760008155600101611191565b600082601f8301126111b5578081fd5b813567ffffffffffffffff808211156111d0576111d0611564565b604051601f8301601f19908116603f011681019082821181831017156111f8576111f8611564565b81604052838152866020858801011115611210578485fd5b8360208701602083013792830160200193909352509392505050565b60006020828403121561123d578081fd5b81356110f88161157a565b6000806000806080858703121561125d578283fd5b84356112688161157a565b935060208501356112788161157a565b925060408501359150606085013567ffffffffffffffff81111561129a578182fd5b6112a6878288016111a5565b91505092959194509250565b600080604083850312156112c4578182fd5b82356112cf8161157a565b9150602083013567ffffffffffffffff8111156112ea578182fd5b6112f6858286016111a5565b9150509250929050565b60008060408385031215611312578182fd5b823561131d8161157a565b946020939093013593505050565b60006020828403121561133c578081fd5b5051919050565b60008060408385031215611355578182fd5b8235915060208301356113678161157a565b809150509250929050565b600082516113848184602087016114fd565b9190910192915050565b60208152600082518060208401526113ad8160408501602087016114fd565b601f01601f19169190910160400192915050565b6020808252602c908201527f46756e6374696f6e206d7573742062652063616c6c6564207468726f7567682060408201526b19195b1959d85d1958d85b1b60a21b606082015260800190565b6020808252602c908201527f46756e6374696f6e206d7573742062652063616c6c6564207468726f7567682060408201526b6163746976652070726f787960a01b606082015260800190565b6020808252818101527f4f776e61626c653a2063616c6c6572206973206e6f7420746865206f776e6572604082015260600190565b6020808252602b908201527f496e697469616c697a61626c653a20636f6e7472616374206973206e6f74206960408201526a6e697469616c697a696e6760a81b606082015260800190565b600082198211156114f857634e487b7160e01b81526011600452602481fd5b500190565b60005b83811015611518578181015183820152602001611500565b838111156105315750506000910152565b600181811c9082168061153d57607f821691505b6020821081141561155e57634e487b7160e01b600052602260045260246000fd5b50919050565b634e487b7160e01b600052604160045260246000fd5b6001600160a01b038116811461066657600080fdfe608060405234801561001057600080fd5b5061073e806100206000396000f3fe6080604052600436106100705760003560e01c80638da5cb5b1161004e5780638da5cb5b146100c1578063e3a9db1a146100ee578063f2fde38b14610132578063f340fa011461015257600080fd5b806351cff8d914610075578063715018a6146100975780638129fc1c146100ac575b600080fd5b34801561008157600080fd5b5061009561009036600461062c565b610165565b005b3480156100a357600080fd5b50610095610207565b3480156100b857600080fd5b5061009561023d565b3480156100cd57600080fd5b506033546040516001600160a01b0390911681526020015b60405180910390f35b3480156100fa57600080fd5b5061012461010936600461062c565b6001600160a01b031660009081526065602052604090205490565b6040519081526020016100e5565b34801561013e57600080fd5b5061009561014d36600461062c565b6102fe565b61009561016036600461062c565b610396565b6033546001600160a01b031633146101985760405162461bcd60e51b815260040161018f9061064f565b60405180910390fd5b6001600160a01b03811660008181526065602052604081208054919055906101c0908261042a565b816001600160a01b03167f7084f5476618d8e60b11ef0d7d3f06914655adb8793e28ff7f018d4c76d505d5826040516101fb91815260200190565b60405180910390a25050565b6033546001600160a01b031633146102315760405162461bcd60e51b815260040161018f9061064f565b61023b6000610548565b565b600054610100900460ff166102585760005460ff161561025c565b303b155b6102bf5760405162461bcd60e51b815260206004820152602e60248201527f496e697469616c697a61626c653a20636f6e747261637420697320616c72656160448201526d191e481a5b9a5d1a585b1a5e995960921b606482015260840161018f565b600054610100900460ff161580156102e1576000805461ffff19166101011790555b6102e961059a565b80156102fb576000805461ff00191690555b50565b6033546001600160a01b031633146103285760405162461bcd60e51b815260040161018f9061064f565b6001600160a01b03811661038d5760405162461bcd60e51b815260206004820152602660248201527f4f776e61626c653a206e6577206f776e657220697320746865207a65726f206160448201526564647265737360d01b606482015260840161018f565b6102fb81610548565b6033546001600160a01b031633146103c05760405162461bcd60e51b815260040161018f9061064f565b6001600160a01b0381166000908152606560205260408120805434928392916103ea9084906106cf565b90915550506040518181526001600160a01b038316907f2da466a7b24304f47e87fa2e1e5a81b9831ce54fec19055ce277ca2f39ba42c4906020016101fb565b8047101561047a5760405162461bcd60e51b815260206004820152601d60248201527f416464726573733a20696e73756666696369656e742062616c616e6365000000604482015260640161018f565b6000826001600160a01b03168260405160006040518083038185875af1925050503d80600081146104c7576040519150601f19603f3d011682016040523d82523d6000602084013e6104cc565b606091505b50509050806105435760405162461bcd60e51b815260206004820152603a60248201527f416464726573733a20756e61626c6520746f2073656e642076616c75652c207260448201527f6563697069656e74206d61792068617665207265766572746564000000000000606482015260840161018f565b505050565b603380546001600160a01b038381166001600160a01b0319831681179093556040519116919082907f8be0079c531659141344cd1fd0a4f28419497f9722a3daafe3b4186f6b6457e090600090a35050565b600054610100900460ff166105c15760405162461bcd60e51b815260040161018f90610684565b6105c96105d5565b6105d16105fc565b61023b5b600054610100900460ff1661023b5760405162461bcd60e51b815260040161018f90610684565b600054610100900460ff166106235760405162461bcd60e51b815260040161018f90610684565b61023b33610548565b60006020828403121561063d578081fd5b8135610648816106f3565b9392505050565b6020808252818101527f4f776e61626c653a2063616c6c6572206973206e6f7420746865206f776e6572604082015260600190565b6020808252602b908201527f496e697469616c697a61626c653a20636f6e7472616374206973206e6f74206960408201526a6e697469616c697a696e6760a81b606082015260800190565b600082198211156106ee57634e487b7160e01b81526011600452602481fd5b500190565b6001600160a01b03811681146102fb57600080fdfea2646970667358221220785a95757a61f623a799314a54748b49003325682498333e1c2fd742df59c7c864736f6c63430008040033416464726573733a206c6f772d6c6576656c2064656c65676174652063616c6c206661696c6564a2646970667358221220242b54eb61dede31361ba69e7025691e13d2e6eb21c42f85221a1312a2aefcd064736f6c63430008040033",
  "linkReferences": {},
  "deployedLinkReferences": {}
}