{
  "_format": "hh-sol-artifact-1",
  "contractName": "NFTMarket",
  "sourceName": "contracts/Market.sol",
  "abi": [
    {
      "inputs": [],
      "stateMutability": "nonpayable",
      "type": "constructor"
    },
    {
      "anonymous": false,
      "inputs": [
        {
          "indexed": false,
          "internalType": "address",
          "name": "previousAdmin",
          "type": "address"
        },
        {
          "indexed": false,
          "internalType": "address",
          "name": "newAdmin",
          "type": "address"
        }
      ],
      "name": "AdminChanged",
      "type": "event"
    },
    {
      "anonymous": false,
      "inputs": [
        {
          "indexed": true,
          "internalType": "address",
          "name": "beacon",
          "type": "address"
        }
      ],
      "name": "BeaconUpgraded",
      "type": "event"
    },
    {
      "anonymous": false,
      "inputs": [
        {
          "indexed": true,
          "internalType": "uint256",
          "name": "itemId",
          "type": "uint256"
        },
        {
          "indexed": true,
          "internalType": "address",
          "name": "nftContract",
          "type": "address"
        },
        {
          "indexed": true,
          "internalType": "uint256",
          "name": "tokenId",
          "type": "uint256"
        },
        {
          "indexed": false,
          "internalType": "address",
          "name": "seller",
          "type": "address"
        },
        {
          "indexed": false,
          "internalType": "address",
          "name": "owner",
          "type": "address"
        },
        {
          "indexed": false,
          "internalType": "uint256",
          "name": "price",
          "type": "uint256"
        },
        {
          "indexed": false,
          "internalType": "bool",
          "name": "sold",
          "type": "bool"
        }
      ],
      "name": "MarketItemCreated",
      "type": "event"
    },
    {
      "anonymous": false,
      "inputs": [
        {
          "indexed": true,
          "internalType": "uint256",
          "name": "itemId",
          "type": "uint256"
        },
        {
          "indexed": true,
          "internalType": "address",
          "name": "nftContract",
          "type": "address"
        },
        {
          "indexed": true,
          "internalType": "uint256",
          "name": "tokenId",
          "type": "uint256"
        },
        {
          "indexed": false,
          "internalType": "address",
          "name": "seller",
          "type": "address"
        },
        {
          "indexed": false,
          "internalType": "address",
          "name": "owner",
          "type": "address"
        },
        {
          "indexed": false,
          "internalType": "uint256",
          "name": "price",
          "type": "uint256"
        },
        {
          "indexed": false,
          "internalType": "bool",
          "name": "sold",
          "type": "bool"
        }
      ],
      "name": "MarketItemSold",
      "type": "event"
    },
    {
      "anonymous": false,
      "inputs": [
        {
          "indexed": true,
          "internalType": "address",
          "name": "previousOwner",
          "type": "address"
        },
        {
          "indexed": true,
          "internalType": "address",
          "name": "newOwner",
          "type": "address"
        }
      ],
      "name": "OwnershipTransferred",
      "type": "event"
    },
    {
      "anonymous": false,
      "inputs": [
        {
          "indexed": false,
          "internalType": "uint256",
          "name": "tokenId",
          "type": "uint256"
        },
        {
          "indexed": false,
          "internalType": "uint256",
          "name": "value",
          "type": "uint256"
        }
      ],
      "name": "RoyaltiesPaid",
      "type": "event"
    },
    {
      "anonymous": false,
      "inputs": [
        {
          "indexed": true,
          "internalType": "address",
          "name": "implementation",
          "type": "address"
        }
      ],
      "name": "Upgraded",
      "type": "event"
    },
    {
      "anonymous": false,
      "inputs": [
        {
          "indexed": false,
          "internalType": "uint256",
          "name": "value",
          "type": "uint256"
        }
      ],
      "name": "ValueChanged",
      "type": "event"
    },
    {
      "inputs": [
        {
          "internalType": "address",
          "name": "nftContract",
          "type": "address"
        },
        {
          "internalType": "uint256",
          "name": "tokenId",
          "type": "uint256"
        },
        {
          "internalType": "uint256",
          "name": "price",
          "type": "uint256"
        }
      ],
      "name": "createMarketItem",
      "outputs": [],
      "stateMutability": "payable",
      "type": "function"
    },
    {
      "inputs": [
        {
          "internalType": "address",
          "name": "nftContract",
          "type": "address"
        },
        {
          "internalType": "uint256",
          "name": "itemId",
          "type": "uint256"
        }
      ],
      "name": "createMarketSale",
      "outputs": [],
      "stateMutability": "payable",
      "type": "function"
    },
    {
      "inputs": [],
      "name": "fetchItemsCreated",
      "outputs": [
        {
          "components": [
            {
              "internalType": "uint256",
              "name": "itemId",
              "type": "uint256"
            },
            {
              "internalType": "address",
              "name": "nftContract",
              "type": "address"
            },
            {
              "internalType": "uint256",
              "name": "tokenId",
              "type": "uint256"
            },
            {
              "internalType": "address payable",
              "name": "seller",
              "type": "address"
            },
            {
              "internalType": "address payable",
              "name": "owner",
              "type": "address"
            },
            {
              "internalType": "uint256",
              "name": "price",
              "type": "uint256"
            },
            {
              "internalType": "bool",
              "name": "sold",
              "type": "bool"
            }
          ],
          "internalType": "struct NFTMarket.MarketItem[]",
          "name": "",
          "type": "tuple[]"
        }
      ],
      "stateMutability": "view",
      "type": "function"
    },
    {
      "inputs": [],
      "name": "fetchMarketItems",
      "outputs": [
        {
          "components": [
            {
              "internalType": "uint256",
              "name": "itemId",
              "type": "uint256"
            },
            {
              "internalType": "address",
              "name": "nftContract",
              "type": "address"
            },
            {
              "internalType": "uint256",
              "name": "tokenId",
              "type": "uint256"
            },
            {
              "internalType": "address payable",
              "name": "seller",
              "type": "address"
            },
            {
              "internalType": "address payable",
              "name": "owner",
              "type": "address"
            },
            {
              "internalType": "uint256",
              "name": "price",
              "type": "uint256"
            },
            {
              "internalType": "bool",
              "name": "sold",
              "type": "bool"
            }
          ],
          "internalType": "struct NFTMarket.MarketItem[]",
          "name": "",
          "type": "tuple[]"
        }
      ],
      "stateMutability": "view",
      "type": "function"
    },
    {
      "inputs": [],
      "name": "fetchMyNFTs",
      "outputs": [
        {
          "components": [
            {
              "internalType": "uint256",
              "name": "itemId",
              "type": "uint256"
            },
            {
              "internalType": "address",
              "name": "nftContract",
              "type": "address"
            },
            {
              "internalType": "uint256",
              "name": "tokenId",
              "type": "uint256"
            },
            {
              "internalType": "address payable",
              "name": "seller",
              "type": "address"
            },
            {
              "internalType": "address payable",
              "name": "owner",
              "type": "address"
            },
            {
              "internalType": "uint256",
              "name": "price",
              "type": "uint256"
            },
            {
              "internalType": "bool",
              "name": "sold",
              "type": "bool"
            }
          ],
          "internalType": "struct NFTMarket.MarketItem[]",
          "name": "",
          "type": "tuple[]"
        }
      ],
      "stateMutability": "view",
      "type": "function"
    },
    {
      "inputs": [],
      "name": "getListingPrice",
      "outputs": [
        {
          "internalType": "uint256",
          "name": "",
          "type": "uint256"
        }
      ],
      "stateMutability": "view",
      "type": "function"
    },
    {
      "inputs": [],
      "name": "incrementListingPrice",
      "outputs": [],
      "stateMutability": "nonpayable",
      "type": "function"
    },
    {
      "inputs": [],
      "name": "initialize",
      "outputs": [],
      "stateMutability": "nonpayable",
      "type": "function"
    },
    {
      "inputs": [],
      "name": "owner",
      "outputs": [
        {
          "internalType": "address",
          "name": "",
          "type": "address"
        }
      ],
      "stateMutability": "view",
      "type": "function"
    },
    {
      "inputs": [],
      "name": "renounceOwnership",
      "outputs": [],
      "stateMutability": "nonpayable",
      "type": "function"
    },
    {
      "inputs": [
        {
          "internalType": "address",
          "name": "newOwner",
          "type": "address"
        }
      ],
      "name": "transferOwnership",
      "outputs": [],
      "stateMutability": "nonpayable",
      "type": "function"
    },
    {
      "inputs": [
        {
          "internalType": "address",
          "name": "newImplementation",
          "type": "address"
        }
      ],
      "name": "upgradeTo",
      "outputs": [],
      "stateMutability": "nonpayable",
      "type": "function"
    },
    {
      "inputs": [
        {
          "internalType": "address",
          "name": "newImplementation",
          "type": "address"
        },
        {
          "internalType": "bytes",
          "name": "data",
          "type": "bytes"
        }
      ],
      "name": "upgradeToAndCall",
      "outputs": [],
      "stateMutability": "payable",
      "type": "function"
    },
    {
      "inputs": [],
      "name": "version",
      "outputs": [
        {
          "internalType": "string",
          "name": "",
          "type": "string"
        }
      ],
      "stateMutability": "view",
      "type": "function"
    }
  ],
  "bytecode": "0x60a06040523060601b6080523480156200001857600080fd5b50600054610100900460ff16620000365760005460ff161562000040565b62000040620000e5565b620000a85760405162461bcd60e51b815260206004820152602e60248201527f496e697469616c697a61626c653a20636f6e747261637420697320616c72656160448201526d191e481a5b9a5d1a585b1a5e995960921b606482015260840160405180910390fd5b600054610100900460ff16158015620000cb576000805461ffff19166101011790555b8015620000de576000805461ff00191690555b5062000109565b6000620000fd306200010360201b6200107c1760201c565b15905090565b3b151590565b60805160601c611cd66200013d600039600081816105f40152818161063d015281816106c601526107060152611cd66000f3fe6080604052600436106100dd5760003560e01c8063715018a61161007f578063bc91133911610059578063bc911339146101fc578063c23b139e14610211578063f064c32e14610224578063f2fde38b1461023957600080fd5b8063715018a6146101aa5780638129fc1c146101bf5780638da5cb5b146101d457600080fd5b80633659cfe6116100bb5780633659cfe6146101405780634f1ef2861461016257806354fd4d501461017557806358eb2df51461019757600080fd5b80630f08efe0146100e257806312e855851461010d578063202e37401461012b575b600080fd5b3480156100ee57600080fd5b506100f7610259565b60405161010491906119a4565b60405180910390f35b34801561011957600080fd5b5060fd54604051908152602001610104565b34801561013757600080fd5b506100f7610402565b34801561014c57600080fd5b5061016061015b366004611801565b6105e9565b005b61016061017036600461181d565b6106bb565b34801561018157600080fd5b5061018a610775565b6040516101049190611a38565b6101606101a5366004611934565b610803565b3480156101b657600080fd5b50610160610a9a565b3480156101cb57600080fd5b50610160610ad0565b3480156101e057600080fd5b5060c9546040516001600160a01b039091168152602001610104565b34801561020857600080fd5b50610160610ba3565b61016061021f3660046118dc565b610beb565b34801561023057600080fd5b506100f7610dfd565b34801561024557600080fd5b50610160610254366004611801565b610fe4565b6060600061026660fb5490565b9050600061027360fc5490565b60fb546102809190611b9b565b90506000808267ffffffffffffffff8111156102ac57634e487b7160e01b600052604160045260246000fd5b6040519080825280602002602001820160405280156102e557816020015b6102d261172c565b8152602001906001900390816102ca5790505b50905060005b848110156103f957600060ff81610303846001611b83565b81526020810191909152604001600020600401546001600160a01b031614156103e7576000610333826001611b83565b600081815260ff6020818152604092839020835160e0810185528154815260018201546001600160a01b039081169382019390935260028201549481019490945260038101548216606085015260048101549091166080840152600581015460a08401526006810154909116151560c08301528551929350918590879081106103cc57634e487b7160e01b600052603260045260246000fd5b60209081029190910101526103e2600186611b83565b945050505b806103f181611c1d565b9150506102eb565b50949350505050565b6060600061040f60fb5490565b905060008060005b83811015610472573360ff600061042f846001611b83565b81526020810191909152604001600020600401546001600160a01b031614156104605761045d600184611b83565b92505b8061046a81611c1d565b915050610417565b5060008267ffffffffffffffff81111561049c57634e487b7160e01b600052604160045260246000fd5b6040519080825280602002602001820160405280156104d557816020015b6104c261172c565b8152602001906001900390816104ba5790505b50905060005b848110156103f9573360ff60006104f3846001611b83565b81526020810191909152604001600020600401546001600160a01b031614156105d7576000610523826001611b83565b600081815260ff6020818152604092839020835160e0810185528154815260018201546001600160a01b039081169382019390935260028201549481019490945260038101548216606085015260048101549091166080840152600581015460a08401526006810154909116151560c08301528551929350918590879081106105bc57634e487b7160e01b600052603260045260246000fd5b60209081029190910101526105d2600186611b83565b945050505b806105e181611c1d565b9150506104db565b306001600160a01b037f000000000000000000000000000000000000000000000000000000000000000016141561063b5760405162461bcd60e51b815260040161063290611a6b565b60405180910390fd5b7f00000000000000000000000000000000000000000000000000000000000000006001600160a01b031661066d611082565b6001600160a01b0316146106935760405162461bcd60e51b815260040161063290611ab7565b61069c816110b0565b604080516000808252602082019092526106b891839190611104565b50565b306001600160a01b037f00000000000000000000000000000000000000000000000000000000000000001614156107045760405162461bcd60e51b815260040161063290611a6b565b7f00000000000000000000000000000000000000000000000000000000000000006001600160a01b0316610736611082565b6001600160a01b03161461075c5760405162461bcd60e51b815260040161063290611ab7565b610765826110b0565b61077182826001611104565b5050565b60fe805461078290611be2565b80601f01602080910402602001604051908101604052809291908181526020018280546107ae90611be2565b80156107fb5780601f106107d0576101008083540402835291602001916107fb565b820191906000526020600020905b8154815290600101906020018083116107de57829003601f168201915b505050505081565b600260015414156108565760405162461bcd60e51b815260206004820152601f60248201527f5265656e7472616e637947756172643a207265656e7472616e742063616c6c006044820152606401610632565b6002600155806108a85760405162461bcd60e51b815260206004820152601c60248201527f5072696365206d757374206265206174206c65617374203120776569000000006044820152606401610632565b60fd5434146109055760405162461bcd60e51b8152602060048201526024808201527f5072696365206d75737420626520657175616c20746f206c697374696e6720706044820152637269636560e01b6064820152608401610632565b61091360fb80546001019055565b600061091e60fb5490565b6040805160e0810182528281526001600160a01b0387811660208084018281528486018a8152336060870181815260006080890181815260a08a018e815260c08b018381528d845260ff909852918b902099518a55945160018a018054918a166001600160a01b0319928316179055935160028a015590516003890180549189169185169190911790559251600480890180549290981691909316179095559051600586015590516006909401805494151560ff199095169490941790935592516323b872dd60e01b81529182015230602482015260448101869052919250906323b872dd90606401600060405180830381600087803b158015610a2157600080fd5b505af1158015610a35573d6000803e3d6000fd5b505060408051338152600060208201819052818301879052606082015290518693506001600160a01b038816925084917f045dfa01dcba2b36aba1d3dc4a874f4b0c5d2fbeb8d2c4b34a7d88c8d8f929d1919081900360800190a45050600180555050565b60c9546001600160a01b03163314610ac45760405162461bcd60e51b815260040161063290611b03565b610ace600061124f565b565b600054610100900460ff16610aeb5760005460ff1615610aef565b303b155b610b525760405162461bcd60e51b815260206004820152602e60248201527f496e697469616c697a61626c653a20636f6e747261637420697320616c72656160448201526d191e481a5b9a5d1a585b1a5e995960921b6064820152608401610632565b600054610100900460ff16158015610b74576000805461ffff19166101011790555b610b7c6112a1565b610b846112d8565b6611c37937e0800060fd5580156106b8576000805461ff001916905550565b60fd54610bb1906001611b83565b60fd8190556040519081527f93fe6d397c74fdf1402a8b72e47b68512f0510d7b98a4bc4cbdf6ac7108b3c599060200160405180910390a1565b60026001541415610c3e5760405162461bcd60e51b815260206004820152601f60248201527f5265656e7472616e637947756172643a207265656e7472616e742063616c6c006044820152606401610632565b60026001819055600082815260ff60205260409020600581015491015434610c658561130f565b15610c7857610c75858383611399565b90505b600084815260ff60205260408082206003015490516001600160a01b039091169183919081818185875af1925050503d8060008114610cd3576040519150601f19603f3d011682016040523d82523d6000602084013e610cd8565b606091505b50506040516323b872dd60e01b8152306004820152336024820152604481018490526001600160a01b03871691506323b872dd90606401600060405180830381600087803b158015610d2957600080fd5b505af1158015610d3d573d6000803e3d6000fd5b505050600085815260ff602052604090206004810180546001600160a01b03191633179055600601805460ff1916600117905550610d7f60fc80546001019055565b6000610d8a60fc5490565b60fb54610d979190611b9b565b60408051600081523360208201529081018690526001606082015290915083906001600160a01b0388169087907ffeb04e399f6ba62d926a65372cbb5f11e3c7a9ff05e62948769d2ee5d5335b849060800160405180910390a450506001805550505050565b60606000610e0a60fb5490565b905060008060005b83811015610e6d573360ff6000610e2a846001611b83565b81526020810191909152604001600020600301546001600160a01b03161415610e5b57610e58600184611b83565b92505b80610e6581611c1d565b915050610e12565b5060008267ffffffffffffffff811115610e9757634e487b7160e01b600052604160045260246000fd5b604051908082528060200260200182016040528015610ed057816020015b610ebd61172c565b815260200190600190039081610eb55790505b50905060005b848110156103f9573360ff6000610eee846001611b83565b81526020810191909152604001600020600301546001600160a01b03161415610fd2576000610f1e826001611b83565b600081815260ff6020818152604092839020835160e0810185528154815260018201546001600160a01b039081169382019390935260028201549481019490945260038101548216606085015260048101549091166080840152600581015460a08401526006810154909116151560c0830152855192935091859087908110610fb757634e487b7160e01b600052603260045260246000fd5b6020908102919091010152610fcd600186611b83565b945050505b80610fdc81611c1d565b915050610ed6565b60c9546001600160a01b0316331461100e5760405162461bcd60e51b815260040161063290611b03565b6001600160a01b0381166110735760405162461bcd60e51b815260206004820152602660248201527f4f776e61626c653a206e6577206f776e657220697320746865207a65726f206160448201526564647265737360d01b6064820152608401610632565b6106b88161124f565b3b151590565b7f360894a13ba1a3210667c828492db98dca3e2076cc3735a920a3ca505d382bbc546001600160a01b031690565b60c9546001600160a01b031633146110da5760405162461bcd60e51b815260040161063290611b03565b604080518082019091526003808252620322e360ec1b60209092019182526107719160fe91611768565b600061110e611082565b9050611119846114cc565b6000835111806111265750815b15611137576111358484611571565b505b7f4910fdfa16fed3260ed0e7147f7cc6da11a60208b5b9406d12a635614ffd9143805460ff1661124857805460ff191660011781556040516001600160a01b03831660248201526111b690869060440160408051601f198184030181529190526020810180516001600160e01b0316631b2ce7f360e11b179052611571565b50805460ff191681556111c7611082565b6001600160a01b0316826001600160a01b03161461123f5760405162461bcd60e51b815260206004820152602f60248201527f45524331393637557067726164653a207570677261646520627265616b73206660448201526e75727468657220757067726164657360881b6064820152608401610632565b6112488561165c565b5050505050565b60c980546001600160a01b038381166001600160a01b0319831681179093556040519116919082907f8be0079c531659141344cd1fd0a4f28419497f9722a3daafe3b4186f6b6457e090600090a35050565b600054610100900460ff166112c85760405162461bcd60e51b815260040161063290611b38565b6112d061169c565b610ace6116c3565b600054610100900460ff166112ff5760405162461bcd60e51b815260040161063290611b38565b61130761169c565b610ace61169c565b6040516301ffc9a760e01b815263152a902d60e11b600482015260009081906001600160a01b038416906301ffc9a79060240160206040518083038186803b15801561135a57600080fd5b505afa15801561136e573d6000803e3d6000fd5b505050506040513d601f19601f820116820180604052508101906113929190611968565b9392505050565b60405163152a902d60e11b81526004810183905260248101829052600090819081906001600160a01b03871690632a55205a90604401604080518083038186803b1580156113e657600080fd5b505afa1580156113fa573d6000803e3d6000fd5b505050506040513d601f19601f8201168201806040525081019061141e9190611907565b9092509050600061142f8286611b9b565b90508115611489576040516001600160a01b038416908390600081818185875af1925050503d8060008114611480576040519150601f19603f3d011682016040523d82523d6000602084013e611485565b606091505b5050505b60408051878152602081018490527fe61af2269c9afbdb69efce2b15f2a464f8ee6237f105b3d4024f2e824a9f0af3910160405180910390a19695505050505050565b803b6115305760405162461bcd60e51b815260206004820152602d60248201527f455243313936373a206e657720696d706c656d656e746174696f6e206973206e60448201526c1bdd08184818dbdb9d1c9858dd609a1b6064820152608401610632565b7f360894a13ba1a3210667c828492db98dca3e2076cc3735a920a3ca505d382bbc80546001600160a01b0319166001600160a01b0392909216919091179055565b6060823b6115d05760405162461bcd60e51b815260206004820152602660248201527f416464726573733a2064656c65676174652063616c6c20746f206e6f6e2d636f6044820152651b9d1c9858dd60d21b6064820152608401610632565b600080846001600160a01b0316846040516115eb9190611988565b600060405180830381855af49150503d8060008114611626576040519150601f19603f3d011682016040523d82523d6000602084013e61162b565b606091505b50915091506116538282604051806060016040528060278152602001611c7a602791396116f3565b95945050505050565b611665816114cc565b6040516001600160a01b038216907fbc7cd75a20ee27fd9adebab32041f755214dbc6bffa90cc0225b39da2e5c2d3b90600090a250565b600054610100900460ff16610ace5760405162461bcd60e51b815260040161063290611b38565b600054610100900460ff166116ea5760405162461bcd60e51b815260040161063290611b38565b610ace3361124f565b60608315611702575081611392565b8251156117125782518084602001fd5b8160405162461bcd60e51b81526004016106329190611a38565b6040805160e081018252600080825260208201819052918101829052606081018290526080810182905260a0810182905260c081019190915290565b82805461177490611be2565b90600052602060002090601f01602090048101928261179657600085556117dc565b82601f106117af57805160ff19168380011785556117dc565b828001600101855582156117dc579182015b828111156117dc5782518255916020019190600101906117c1565b506117e89291506117ec565b5090565b5b808211156117e857600081556001016117ed565b600060208284031215611812578081fd5b813561139281611c64565b6000806040838503121561182f578081fd5b823561183a81611c64565b9150602083013567ffffffffffffffff80821115611856578283fd5b818501915085601f830112611869578283fd5b81358181111561187b5761187b611c4e565b604051601f8201601f19908116603f011681019083821181831017156118a3576118a3611c4e565b816040528281528860208487010111156118bb578586fd5b82602086016020830137856020848301015280955050505050509250929050565b600080604083850312156118ee578182fd5b82356118f981611c64565b946020939093013593505050565b60008060408385031215611919578182fd5b825161192481611c64565b6020939093015192949293505050565b600080600060608486031215611948578081fd5b833561195381611c64565b95602085013595506040909401359392505050565b600060208284031215611979578081fd5b81518015158114611392578182fd5b6000825161199a818460208701611bb2565b9190910192915050565b602080825282518282018190526000919060409081850190868401855b82811015611a2b57815180518552868101516001600160a01b039081168887015286820151878701526060808301518216908701526080808301519091169086015260a0808201519086015260c09081015115159085015260e090930192908501906001016119c1565b5091979650505050505050565b6020815260008251806020840152611a57816040850160208701611bb2565b601f01601f19169190910160400192915050565b6020808252602c908201527f46756e6374696f6e206d7573742062652063616c6c6564207468726f7567682060408201526b19195b1959d85d1958d85b1b60a21b606082015260800190565b6020808252602c908201527f46756e6374696f6e206d7573742062652063616c6c6564207468726f7567682060408201526b6163746976652070726f787960a01b606082015260800190565b6020808252818101527f4f776e61626c653a2063616c6c6572206973206e6f7420746865206f776e6572604082015260600190565b6020808252602b908201527f496e697469616c697a61626c653a20636f6e7472616374206973206e6f74206960408201526a6e697469616c697a696e6760a81b606082015260800190565b60008219821115611b9657611b96611c38565b500190565b600082821015611bad57611bad611c38565b500390565b60005b83811015611bcd578181015183820152602001611bb5565b83811115611bdc576000848401525b50505050565b600181811c90821680611bf657607f821691505b60208210811415611c1757634e487b7160e01b600052602260045260246000fd5b50919050565b6000600019821415611c3157611c31611c38565b5060010190565b634e487b7160e01b600052601160045260246000fd5b634e487b7160e01b600052604160045260246000fd5b6001600160a01b03811681146106b857600080fdfe416464726573733a206c6f772d6c6576656c2064656c65676174652063616c6c206661696c6564a2646970667358221220597f5f28bce474237439f66f27c46ee8140cf00791c63458e567a46cde8e731564736f6c63430008040033",
  "linkReferences": {},
  "deployedLinkReferences": {}
}